{
    "_format": "hh-sol-artifact-1",
    "contractName": "AztecFeeDistributor",
    "sourceName": "contracts/AztecFeeDistributor.sol",
    "abi": [
        {
            "inputs": [
                {
                    "internalType": "address",
                    "name": "_feeClaimer",
                    "type": "address"
                },
                {
                    "internalType": "address",
                    "name": "_rollupProcessor",
                    "type": "address"
                },
                {
                    "internalType": "address",
                    "name": "_router",
                    "type": "address"
                }
            ],
            "stateMutability": "nonpayable",
            "type": "constructor"
        },
        {
            "anonymous": false,
            "inputs": [
                {
                    "indexed": false,
                    "internalType": "address",
                    "name": "assetAddress",
                    "type": "address"
                },
                {
                    "indexed": false,
                    "internalType": "uint256",
                    "name": "inputValue",
                    "type": "uint256"
                },
                {
                    "indexed": false,
                    "internalType": "uint256",
                    "name": "outputValue",
                    "type": "uint256"
                }
            ],
            "name": "Convert",
            "type": "event"
        },
        {
            "anonymous": false,
            "inputs": [
                {
                    "indexed": false,
                    "internalType": "address",
                    "name": "receiver",
                    "type": "address"
                },
                {
                    "indexed": false,
                    "internalType": "uint256",
                    "name": "amount",
                    "type": "uint256"
                }
            ],
            "name": "FeeReimbursed",
            "type": "event"
        },
        {
            "anonymous": false,
            "inputs": [
                {
                    "indexed": true,
                    "internalType": "address",
                    "name": "previousOwner",
                    "type": "address"
                },
                {
                    "indexed": true,
                    "internalType": "address",
                    "name": "newOwner",
                    "type": "address"
                }
            ],
            "name": "OwnershipTransferred",
            "type": "event"
        },
        {
            "inputs": [],
            "name": "WETH",
            "outputs": [
                {
                    "internalType": "address",
                    "name": "",
                    "type": "address"
                }
            ],
            "stateMutability": "view",
            "type": "function"
        },
        {
            "inputs": [],
            "name": "aztecFeeClaimer",
            "outputs": [
                {
                    "internalType": "address",
                    "name": "",
                    "type": "address"
                }
            ],
            "stateMutability": "view",
            "type": "function"
        },
        {
            "inputs": [
                {
                    "internalType": "address",
                    "name": "assetAddress",
                    "type": "address"
                },
                {
                    "internalType": "uint256",
                    "name": "minOutputValue",
                    "type": "uint256"
                }
            ],
            "name": "convert",
            "outputs": [
                {
                    "internalType": "uint256",
                    "name": "outputValue",
                    "type": "uint256"
                }
            ],
            "stateMutability": "nonpayable",
            "type": "function"
        },
        {
            "inputs": [],
            "name": "convertConstant",
            "outputs": [
                {
                    "internalType": "uint256",
                    "name": "",
                    "type": "uint256"
                }
            ],
            "stateMutability": "view",
            "type": "function"
        },
        {
            "inputs": [
                {
                    "internalType": "address",
                    "name": "assetAddress",
                    "type": "address"
                },
                {
                    "internalType": "uint256",
                    "name": "amount",
                    "type": "uint256"
                }
            ],
            "name": "deposit",
            "outputs": [
                {
                    "internalType": "uint256",
                    "name": "depositedAmount",
                    "type": "uint256"
                }
            ],
            "stateMutability": "payable",
            "type": "function"
        },
        {
            "inputs": [],
            "name": "factory",
            "outputs": [
                {
                    "internalType": "address",
                    "name": "",
                    "type": "address"
                }
            ],
            "stateMutability": "view",
            "type": "function"
        },
        {
            "inputs": [],
            "name": "feeLimit",
            "outputs": [
                {
                    "internalType": "uint256",
                    "name": "",
                    "type": "uint256"
                }
            ],
            "stateMutability": "view",
            "type": "function"
        },
        {
            "inputs": [],
            "name": "owner",
            "outputs": [
                {
                    "internalType": "address",
                    "name": "",
                    "type": "address"
                }
            ],
            "stateMutability": "view",
            "type": "function"
        },
        {
            "inputs": [],
            "name": "renounceOwnership",
            "outputs": [],
            "stateMutability": "nonpayable",
            "type": "function"
        },
        {
            "inputs": [],
            "name": "rollupProcessor",
            "outputs": [
                {
                    "internalType": "address",
                    "name": "",
                    "type": "address"
                }
            ],
            "stateMutability": "view",
            "type": "function"
        },
        {
            "inputs": [],
            "name": "router",
            "outputs": [
                {
                    "internalType": "address",
                    "name": "",
                    "type": "address"
                }
            ],
            "stateMutability": "view",
            "type": "function"
        },
        {
            "inputs": [
                {
                    "internalType": "uint256",
                    "name": "_convertConstant",
                    "type": "uint256"
                }
            ],
            "name": "setConvertConstant",
            "outputs": [],
            "stateMutability": "nonpayable",
            "type": "function"
        },
        {
            "inputs": [
                {
                    "internalType": "address",
                    "name": "_feeClaimer",
                    "type": "address"
                }
            ],
            "name": "setFeeClaimer",
            "outputs": [],
            "stateMutability": "nonpayable",
            "type": "function"
        },
        {
            "inputs": [
                {
                    "internalType": "uint256",
                    "name": "_feeLimit",
                    "type": "uint256"
                }
            ],
            "name": "setFeeLimit",
            "outputs": [],
            "stateMutability": "nonpayable",
            "type": "function"
        },
        {
            "inputs": [
                {
                    "internalType": "address",
                    "name": "newOwner",
                    "type": "address"
                }
            ],
            "name": "transferOwnership",
            "outputs": [],
            "stateMutability": "nonpayable",
            "type": "function"
        },
        {
            "inputs": [
                {
                    "internalType": "address",
                    "name": "assetAddress",
                    "type": "address"
                }
            ],
            "name": "txFeeBalance",
            "outputs": [
                {
                    "internalType": "uint256",
                    "name": "",
                    "type": "uint256"
                }
            ],
            "stateMutability": "view",
            "type": "function"
        },
        {
            "stateMutability": "payable",
            "type": "receive"
        }
    ],
    "bytecode": "0x60e060405267058d15e176280000600155623025a06004553480156200002457600080fd5b506040516200169a3803806200169a8339810160408190526200004791620001ea565b62000052336200017d565b600280546001600160a01b038086166001600160a01b031992831617909255600380548584169216919091179055811660808190526040805163c45a015560e01b8152905163c45a0155916004808201926020929091908290030181865afa158015620000c3573d6000803e3d6000fd5b505050506040513d601f19601f82011682018060405250810190620000e9919062000234565b6001600160a01b031660a0816001600160a01b031681525050806001600160a01b031663ad5c46486040518163ffffffff1660e01b8152600401602060405180830381865afa15801562000141573d6000803e3d6000fd5b505050506040513d601f19601f8201168201806040525081019062000167919062000234565b6001600160a01b031660c0525062000259915050565b600080546001600160a01b038381166001600160a01b0319831681178455604051919092169283917f8be0079c531659141344cd1fd0a4f28419497f9722a3daafe3b4186f6b6457e09190a35050565b80516001600160a01b0381168114620001e557600080fd5b919050565b6000806000606084860312156200020057600080fd5b6200020b84620001cd565b92506200021b60208501620001cd565b91506200022b60408501620001cd565b90509250925092565b6000602082840312156200024757600080fd5b6200025282620001cd565b9392505050565b60805160a05160c0516113e7620002b36000396000818161030401528181610a6a01528181610ae201528181610bfb0152610cc801526000818161037801528181610a480152610ac00152600061040201526113e76000f3fe6080604052600436106100f75760003560e01c8063ad5c46481161008a578063c746d1d011610059578063c746d1d01461039a578063d3a859d3146103b0578063f2fde38b146103d0578063f887ea40146103f057600080fd5b8063ad5c4648146102f2578063afea09ac14610326578063c3accd4814610346578063c45a01551461036657600080fd5b806367c6e39c116100c657806367c6e39c1461027f578063715018a61461029f57806386a88da2146102b45780638da5cb5b146102d457600080fd5b80632a113d6e146101eb57806347e7ef24146102285780635b193332146102495780635e1637161461025f57600080fd5b366101e6576003546001600160a01b03163314156101e4576001546002546001600160a01b03163110156101e45760006001544711610136574761013a565b6001545b6002546040519192506000916001600160a01b0390911690610bb890849084818181858888f193505050503d8060008114610191576040519150601f19603f3d011682016040523d82523d6000602084013e610196565b606091505b5050600254604080516001600160a01b039092168252602082018590529192507fcf4cc329b7982381c7a729b04a403439bbef0749b4a8dbd2a3850218b420bd87910160405180910390a150505b005b600080fd5b3480156101f757600080fd5b5060035461020b906001600160a01b031681565b6040516001600160a01b0390911681526020015b60405180910390f35b61023b610236366004611171565b610424565b60405190815260200161021f565b34801561025557600080fd5b5061023b60015481565b34801561026b57600080fd5b5061023b61027a36600461119b565b61064d565b34801561028b57600080fd5b5061023b61029a366004611171565b6106d7565b3480156102ab57600080fd5b506101e46108c3565b3480156102c057600080fd5b506101e46102cf3660046111b6565b6108f9565b3480156102e057600080fd5b506000546001600160a01b031661020b565b3480156102fe57600080fd5b5061020b7f000000000000000000000000000000000000000000000000000000000000000081565b34801561033257600080fd5b5060025461020b906001600160a01b031681565b34801561035257600080fd5b506101e461036136600461119b565b610928565b34801561037257600080fd5b5061020b7f000000000000000000000000000000000000000000000000000000000000000081565b3480156103a657600080fd5b5061023b60045481565b3480156103bc57600080fd5b506101e46103cb3660046111b6565b610974565b3480156103dc57600080fd5b506101e46103eb36600461119b565b6109a3565b3480156103fc57600080fd5b5061020b7f000000000000000000000000000000000000000000000000000000000000000081565b60006001600160a01b03831661048d573482146104885760405162461bcd60e51b815260206004820152601d60248201527f466565204469737472696275746f723a2057524f4e475f414d4f554e5400000060448201526064015b60405180910390fd5b610647565b34156104e75760405162461bcd60e51b815260206004820152602360248201527f466565204469737472696275746f723a2057524f4e475f5041594d454e545f5460448201526259504560e81b606482015260840161047f565b6040516323b872dd60e01b8152336004820152306024820152604481018390526001600160a01b038416906323b872dd906064016020604051808303816000875af115801561053a573d6000803e3d6000fd5b505050506040513d601f19601f8201168201806040525081019061055e91906111cf565b506040516370a0823160e01b81523060048201526000906001600160a01b038516906370a0823190602401602060405180830381865afa1580156105a6573d6000803e3d6000fd5b505050506040513d601f19601f820116820180604052508101906105ca91906111f1565b905060006105d88583610a3e565b6004549091506105e8903a610aa6565b8110610644576105f9858383610ab9565b604080516001600160a01b0387168152602081018490529081018290527f9018eade4aec2a696b34b0f5459a1a7dc058389bab8e2380d880817a9e22b2139060600160405180910390a15b50505b50919050565b60006001600160a01b038216610664575047919050565b6040516370a0823160e01b81523060048201526001600160a01b038316906370a0823190602401602060405180830381865afa1580156106a8573d6000803e3d6000fd5b505050506040513d601f19601f820116820180604052508101906106cc91906111f1565b92915050565b919050565b60006001600160a01b03831661073a5760405162461bcd60e51b815260206004820152602260248201527f466565204469737472696275746f723a204e4f545f415f544f4b454e5f415353604482015261115560f21b606482015260840161047f565b6040516370a0823160e01b81523060048201526000906001600160a01b038516906370a0823190602401602060405180830381865afa158015610781573d6000803e3d6000fd5b505050506040513d601f19601f820116820180604052508101906107a591906111f1565b9050600081116107f75760405162461bcd60e51b815260206004820152601e60248201527f466565204469737472696275746f723a20454d5054595f42414c414e43450000604482015260640161047f565b6108018482610a3e565b9150828210156108675760405162461bcd60e51b815260206004820152602b60248201527f466565204469737472696275746f723a20494e53554646494349454e545f4f5560448201526a1514155517d05353d5539560aa1b606482015260840161047f565b610872848284610ab9565b604080516001600160a01b0386168152602081018390529081018390527f9018eade4aec2a696b34b0f5459a1a7dc058389bab8e2380d880817a9e22b2139060600160405180910390a15092915050565b6000546001600160a01b031633146108ed5760405162461bcd60e51b815260040161047f9061120a565b6108f76000610d37565b565b6000546001600160a01b031633146109235760405162461bcd60e51b815260040161047f9061120a565b600455565b6000546001600160a01b031633146109525760405162461bcd60e51b815260040161047f9061120a565b600280546001600160a01b0319166001600160a01b0392909216919091179055565b6000546001600160a01b0316331461099e5760405162461bcd60e51b815260040161047f9061120a565b600155565b6000546001600160a01b031633146109cd5760405162461bcd60e51b815260040161047f9061120a565b6001600160a01b038116610a325760405162461bcd60e51b815260206004820152602660248201527f4f776e61626c653a206e6577206f776e657220697320746865207a65726f206160448201526564647265737360d01b606482015260840161047f565b610a3b81610d37565b50565b6000806000610a8e7f0000000000000000000000000000000000000000000000000000000000000000867f0000000000000000000000000000000000000000000000000000000000000000610d87565b91509150610a9d848383610e51565b95945050505050565b6000610ab28284611255565b9392505050565b6000610b067f0000000000000000000000000000000000000000000000000000000000000000857f0000000000000000000000000000000000000000000000000000000000000000610f70565b604080516001600160a01b038381166024830152604480830188905283518084039091018152606490920183526020820180516001600160e01b031663a9059cbb60e01b179052915192935060009291871691610b6391906112a4565b6000604051808303816000865af19150503d8060008114610ba0576040519150601f19603f3d011682016040523d82523d6000602084013e610ba5565b606091505b5050905080610bf65760405162461bcd60e51b815260206004820181905260248201527f466565204469737472696275746f723a205452414e534645525f4641494c4544604482015260640161047f565b6000807f00000000000000000000000000000000000000000000000000000000000000006001600160a01b0316876001600160a01b031610610c3a57846000610c3e565b6000855b6040805160008152602081019182905263022c0d9f60e01b90915291935091506001600160a01b0385169063022c0d9f90610c8290859085903090602481016112c0565b600060405180830381600087803b158015610c9c57600080fd5b505af1158015610cb0573d6000803e3d6000fd5b5050604051632e1a7d4d60e01b8152600481018890527f00000000000000000000000000000000000000000000000000000000000000006001600160a01b03169250632e1a7d4d9150602401600060405180830381600087803b158015610d1657600080fd5b505af1158015610d2a573d6000803e3d6000fd5b5050505050505050505050565b600080546001600160a01b038381166001600160a01b0319831681178455604051919092169283917f8be0079c531659141344cd1fd0a4f28419497f9722a3daafe3b4186f6b6457e09190a35050565b6000806000610d968585611056565b509050600080610da7888888610f70565b6001600160a01b0316630902f1ac6040518163ffffffff1660e01b8152600401606060405180830381865afa158015610de4573d6000803e3d6000fd5b505050506040513d601f19601f82011682018060405250810190610e089190611327565b506001600160701b031691506001600160701b03169150826001600160a01b0316876001600160a01b031614610e3f578082610e42565b81815b90999098509650505050505050565b6000808411610eb65760405162461bcd60e51b815260206004820152602b60248201527f556e697377617056324c6962726172793a20494e53554646494349454e545f4960448201526a1394155517d05353d5539560aa1b606482015260840161047f565b600083118015610ec65750600082115b610f235760405162461bcd60e51b815260206004820152602860248201527f556e697377617056324c6962726172793a20494e53554646494349454e545f4c604482015267495155494449545960c01b606482015260840161047f565b6000610f31856103e5610aa6565b90506000610f3f8285610aa6565b90506000610f5983610f53886103e8610aa6565b9061114e565b9050610f658183611377565b979650505050505050565b6000806000610f7f8585611056565b6040516bffffffffffffffffffffffff19606084811b8216602084015283901b166034820152919350915060009087906048016040516020818303038152906040528051906020012060405160200161102a9291906001600160f81b0319815260609290921b6bffffffffffffffffffffffff1916600183015260158201527f96e8ac4277198ff8b6f785478aa9a39f403cb768dd02cbee326c3e7da348845f603582015260550190565b60408051601f1981840301815291905280516020909101206001600160a01b0316979650505050505050565b600080826001600160a01b0316846001600160a01b031614156110c95760405162461bcd60e51b815260206004820152602560248201527f556e697377617056324c6962726172793a204944454e544943414c5f41444452604482015264455353455360d81b606482015260840161047f565b826001600160a01b0316846001600160a01b0316106110e95782846110ec565b83835b90925090506001600160a01b0382166111475760405162461bcd60e51b815260206004820152601e60248201527f556e697377617056324c6962726172793a205a45524f5f414444524553530000604482015260640161047f565b9250929050565b6000610ab28284611399565b80356001600160a01b03811681146106d257600080fd5b6000806040838503121561118457600080fd5b61118d8361115a565b946020939093013593505050565b6000602082840312156111ad57600080fd5b610ab28261115a565b6000602082840312156111c857600080fd5b5035919050565b6000602082840312156111e157600080fd5b81518015158114610ab257600080fd5b60006020828403121561120357600080fd5b5051919050565b6020808252818101527f4f776e61626c653a2063616c6c6572206973206e6f7420746865206f776e6572604082015260600190565b634e487b7160e01b600052601160045260246000fd5b600081600019048311821515161561126f5761126f61123f565b500290565b60005b8381101561128f578181015183820152602001611277565b8381111561129e576000848401525b50505050565b600082516112b6818460208701611274565b9190910192915050565b84815283602082015260018060a01b038316604082015260806060820152600082518060808401526112f98160a0850160208701611274565b601f01601f19169190910160a00195945050505050565b80516001600160701b03811681146106d257600080fd5b60008060006060848603121561133c57600080fd5b61134584611310565b925061135360208501611310565b9150604084015163ffffffff8116811461136c57600080fd5b809150509250925092565b60008261139457634e487b7160e01b600052601260045260246000fd5b500490565b600082198211156113ac576113ac61123f565b50019056fea2646970667358221220fe99ede9c39720d009991c5b7f81c0d26c2cb2637c6e9bf5125d8160ab91111464736f6c634300080a0033",
    "linkReferences": {},
    "deployedLinkReferences": {}
}