{
    "_format": "hh-sol-artifact-1",
    "contractName": "RollupProcessor",
    "sourceName": "contracts/RollupProcessor.sol",
    "abi": [
        {
            "inputs": [],
            "name": "ARRAY_OVERFLOW",
            "type": "error"
        },
        {
            "inputs": [],
            "name": "ASYNC_CALLBACK_BAD_CALLER_ADDRESS",
            "type": "error"
        },
        {
            "inputs": [],
            "name": "BRIDGE_ID_IS_INCONSISTENT",
            "type": "error"
        },
        {
            "inputs": [
                {
                    "internalType": "uint256",
                    "name": "inputAssetId",
                    "type": "uint256"
                }
            ],
            "name": "BRIDGE_WITH_IDENTICAL_INPUT_ASSETS",
            "type": "error"
        },
        {
            "inputs": [
                {
                    "internalType": "uint256",
                    "name": "outputAssetId",
                    "type": "uint256"
                }
            ],
            "name": "BRIDGE_WITH_IDENTICAL_OUTPUT_ASSETS",
            "type": "error"
        },
        {
            "inputs": [],
            "name": "DEPOSIT_TOKENS_WRONG_PAYMENT_TYPE",
            "type": "error"
        },
        {
            "inputs": [],
            "name": "ENCODING_BYTE_INVALID",
            "type": "error"
        },
        {
            "inputs": [
                {
                    "internalType": "uint256",
                    "name": "providedIndex",
                    "type": "uint256"
                },
                {
                    "internalType": "uint256",
                    "name": "expectedIndex",
                    "type": "uint256"
                }
            ],
            "name": "INCORRECT_DATA_START_INDEX",
            "type": "error"
        },
        {
            "inputs": [
                {
                    "internalType": "bytes32",
                    "name": "providedDefiInteractionHash",
                    "type": "bytes32"
                },
                {
                    "internalType": "bytes32",
                    "name": "expectedDefiInteractionHash",
                    "type": "bytes32"
                }
            ],
            "name": "INCORRECT_PREVIOUS_DEFI_INTERACTION_HASH",
            "type": "error"
        },
        {
            "inputs": [
                {
                    "internalType": "bytes32",
                    "name": "oldStateHash",
                    "type": "bytes32"
                },
                {
                    "internalType": "bytes32",
                    "name": "newStateHash",
                    "type": "bytes32"
                }
            ],
            "name": "INCORRECT_STATE_HASH",
            "type": "error"
        },
        {
            "inputs": [],
            "name": "INSUFFICIENT_DEPOSIT",
            "type": "error"
        },
        {
            "inputs": [],
            "name": "INSUFFICIENT_ETH_TRANSFER",
            "type": "error"
        },
        {
            "inputs": [],
            "name": "INSUFFICIENT_TOKEN_APPROVAL",
            "type": "error"
        },
        {
            "inputs": [],
            "name": "INVALID_ASSET_ADDRESS",
            "type": "error"
        },
        {
            "inputs": [],
            "name": "INVALID_ASSET_ID",
            "type": "error"
        },
        {
            "inputs": [],
            "name": "INVALID_BRIDGE_ADDRESS",
            "type": "error"
        },
        {
            "inputs": [],
            "name": "INVALID_BRIDGE_ID",
            "type": "error"
        },
        {
            "inputs": [],
            "name": "INVALID_DEPOSITOR",
            "type": "error"
        },
        {
            "inputs": [],
            "name": "INVALID_LINKED_BRIDGE_ADDRESS",
            "type": "error"
        },
        {
            "inputs": [],
            "name": "INVALID_LINKED_TOKEN_ADDRESS",
            "type": "error"
        },
        {
            "inputs": [],
            "name": "INVALID_PROVIDER",
            "type": "error"
        },
        {
            "inputs": [],
            "name": "INVALID_ROLLUP_TOPOLOGY",
            "type": "error"
        },
        {
            "inputs": [],
            "name": "INVALID_SIGNATURE",
            "type": "error"
        },
        {
            "inputs": [],
            "name": "MSG_VALUE_WRONG_AMOUNT",
            "type": "error"
        },
        {
            "inputs": [
                {
                    "internalType": "uint256",
                    "name": "outputValue",
                    "type": "uint256"
                }
            ],
            "name": "NONZERO_OUTPUT_VALUE_ON_NOT_USED_ASSET",
            "type": "error"
        },
        {
            "inputs": [],
            "name": "PROOF_VERIFICATION_FAILED",
            "type": "error"
        },
        {
            "inputs": [
                {
                    "internalType": "uint256",
                    "name": "",
                    "type": "uint256"
                },
                {
                    "internalType": "uint256",
                    "name": "",
                    "type": "uint256"
                }
            ],
            "name": "PUBLIC_INPUTS_HASH_VERIFICATION_FAILED",
            "type": "error"
        },
        {
            "inputs": [],
            "name": "REENTRANCY_MUTEX_SET",
            "type": "error"
        },
        {
            "inputs": [],
            "name": "SIGNATURE_ADDRESS_IS_ZERO",
            "type": "error"
        },
        {
            "inputs": [],
            "name": "SIGNATURE_RECOVERY_FAILED",
            "type": "error"
        },
        {
            "inputs": [],
            "name": "THIRD_PARTY_CONTRACTS_FLAG_NOT_SET",
            "type": "error"
        },
        {
            "inputs": [],
            "name": "TOKEN_ASSET_IS_NOT_LINKED",
            "type": "error"
        },
        {
            "inputs": [],
            "name": "TOKEN_TRANSFER_FAILED",
            "type": "error"
        },
        {
            "inputs": [],
            "name": "WITHDRAW_TO_ZERO_ADDRESS",
            "type": "error"
        },
        {
            "inputs": [],
            "name": "ZERO_BRIDGE_ADDRESS_ID",
            "type": "error"
        },
        {
            "inputs": [],
            "name": "ZERO_TOTAL_INPUT_VALUE",
            "type": "error"
        },
        {
            "anonymous": false,
            "inputs": [
                {
                    "indexed": true,
                    "internalType": "uint256",
                    "name": "assetId",
                    "type": "uint256"
                },
                {
                    "indexed": true,
                    "internalType": "address",
                    "name": "assetAddress",
                    "type": "address"
                },
                {
                    "indexed": false,
                    "internalType": "uint256",
                    "name": "assetGasLimit",
                    "type": "uint256"
                }
            ],
            "name": "AssetAdded",
            "type": "event"
        },
        {
            "anonymous": false,
            "inputs": [
                {
                    "indexed": true,
                    "internalType": "uint256",
                    "name": "bridgeId",
                    "type": "uint256"
                },
                {
                    "indexed": true,
                    "internalType": "uint256",
                    "name": "nonce",
                    "type": "uint256"
                },
                {
                    "indexed": false,
                    "internalType": "uint256",
                    "name": "totalInputValue",
                    "type": "uint256"
                }
            ],
            "name": "AsyncDefiBridgeProcessed",
            "type": "event"
        },
        {
            "anonymous": false,
            "inputs": [
                {
                    "indexed": true,
                    "internalType": "uint256",
                    "name": "bridgeAddressId",
                    "type": "uint256"
                },
                {
                    "indexed": true,
                    "internalType": "address",
                    "name": "bridgeAddress",
                    "type": "address"
                },
                {
                    "indexed": false,
                    "internalType": "uint256",
                    "name": "bridgeGasLimit",
                    "type": "uint256"
                }
            ],
            "name": "BridgeAdded",
            "type": "event"
        },
        {
            "anonymous": false,
            "inputs": [
                {
                    "indexed": true,
                    "internalType": "uint256",
                    "name": "bridgeId",
                    "type": "uint256"
                },
                {
                    "indexed": true,
                    "internalType": "uint256",
                    "name": "nonce",
                    "type": "uint256"
                },
                {
                    "indexed": false,
                    "internalType": "uint256",
                    "name": "totalInputValue",
                    "type": "uint256"
                },
                {
                    "indexed": false,
                    "internalType": "uint256",
                    "name": "totalOutputValueA",
                    "type": "uint256"
                },
                {
                    "indexed": false,
                    "internalType": "uint256",
                    "name": "totalOutputValueB",
                    "type": "uint256"
                },
                {
                    "indexed": false,
                    "internalType": "bool",
                    "name": "result",
                    "type": "bool"
                },
                {
                    "indexed": false,
                    "internalType": "bytes",
                    "name": "errorReason",
                    "type": "bytes"
                }
            ],
            "name": "DefiBridgeProcessed",
            "type": "event"
        },
        {
            "anonymous": false,
            "inputs": [
                {
                    "indexed": false,
                    "internalType": "uint256",
                    "name": "assetId",
                    "type": "uint256"
                },
                {
                    "indexed": false,
                    "internalType": "address",
                    "name": "depositorAddress",
                    "type": "address"
                },
                {
                    "indexed": false,
                    "internalType": "uint256",
                    "name": "depositValue",
                    "type": "uint256"
                }
            ],
            "name": "Deposit",
            "type": "event"
        },
        {
            "anonymous": false,
            "inputs": [
                {
                    "indexed": false,
                    "internalType": "uint8",
                    "name": "version",
                    "type": "uint8"
                }
            ],
            "name": "Initialized",
            "type": "event"
        },
        {
            "anonymous": false,
            "inputs": [
                {
                    "indexed": true,
                    "internalType": "uint256",
                    "name": "rollupId",
                    "type": "uint256"
                },
                {
                    "indexed": false,
                    "internalType": "uint256",
                    "name": "chunk",
                    "type": "uint256"
                },
                {
                    "indexed": false,
                    "internalType": "uint256",
                    "name": "totalChunks",
                    "type": "uint256"
                },
                {
                    "indexed": false,
                    "internalType": "address",
                    "name": "sender",
                    "type": "address"
                }
            ],
            "name": "OffchainData",
            "type": "event"
        },
        {
            "anonymous": false,
            "inputs": [
                {
                    "indexed": true,
                    "internalType": "address",
                    "name": "previousOwner",
                    "type": "address"
                },
                {
                    "indexed": true,
                    "internalType": "address",
                    "name": "newOwner",
                    "type": "address"
                }
            ],
            "name": "OwnershipTransferred",
            "type": "event"
        },
        {
            "anonymous": false,
            "inputs": [
                {
                    "indexed": false,
                    "internalType": "address",
                    "name": "account",
                    "type": "address"
                }
            ],
            "name": "Paused",
            "type": "event"
        },
        {
            "anonymous": false,
            "inputs": [
                {
                    "indexed": true,
                    "internalType": "uint256",
                    "name": "rollupId",
                    "type": "uint256"
                },
                {
                    "indexed": false,
                    "internalType": "bytes32[]",
                    "name": "nextExpectedDefiHashes",
                    "type": "bytes32[]"
                },
                {
                    "indexed": false,
                    "internalType": "address",
                    "name": "sender",
                    "type": "address"
                }
            ],
            "name": "RollupProcessed",
            "type": "event"
        },
        {
            "anonymous": false,
            "inputs": [
                {
                    "indexed": true,
                    "internalType": "address",
                    "name": "providerAddress",
                    "type": "address"
                },
                {
                    "indexed": false,
                    "internalType": "bool",
                    "name": "valid",
                    "type": "bool"
                }
            ],
            "name": "RollupProviderUpdated",
            "type": "event"
        },
        {
            "anonymous": false,
            "inputs": [
                {
                    "indexed": false,
                    "internalType": "address",
                    "name": "account",
                    "type": "address"
                }
            ],
            "name": "Unpaused",
            "type": "event"
        },
        {
            "anonymous": false,
            "inputs": [
                {
                    "indexed": true,
                    "internalType": "address",
                    "name": "verifierAddress",
                    "type": "address"
                }
            ],
            "name": "VerifierUpdated",
            "type": "event"
        },
        {
            "anonymous": false,
            "inputs": [
                {
                    "indexed": false,
                    "internalType": "uint256",
                    "name": "assetId",
                    "type": "uint256"
                },
                {
                    "indexed": false,
                    "internalType": "address",
                    "name": "withdrawAddress",
                    "type": "address"
                },
                {
                    "indexed": false,
                    "internalType": "uint256",
                    "name": "withdrawValue",
                    "type": "uint256"
                }
            ],
            "name": "Withdraw",
            "type": "event"
        },
        {
            "anonymous": false,
            "inputs": [
                {
                    "indexed": false,
                    "internalType": "bytes",
                    "name": "errorReason",
                    "type": "bytes"
                }
            ],
            "name": "WithdrawError",
            "type": "event"
        },
        {
            "inputs": [],
            "name": "allowThirdPartyContracts",
            "outputs": [
                {
                    "internalType": "bool",
                    "name": "",
                    "type": "bool"
                }
            ],
            "stateMutability": "view",
            "type": "function"
        },
        {
            "inputs": [
                {
                    "internalType": "bytes32",
                    "name": "_proofHash",
                    "type": "bytes32"
                }
            ],
            "name": "approveProof",
            "outputs": [],
            "stateMutability": "nonpayable",
            "type": "function"
        },
        {
            "inputs": [
                {
                    "internalType": "uint256",
                    "name": "",
                    "type": "uint256"
                }
            ],
            "name": "assetGasLimits",
            "outputs": [
                {
                    "internalType": "uint256",
                    "name": "",
                    "type": "uint256"
                }
            ],
            "stateMutability": "view",
            "type": "function"
        },
        {
            "inputs": [
                {
                    "internalType": "uint256",
                    "name": "",
                    "type": "uint256"
                }
            ],
            "name": "bridgeGasLimits",
            "outputs": [
                {
                    "internalType": "uint256",
                    "name": "",
                    "type": "uint256"
                }
            ],
            "stateMutability": "view",
            "type": "function"
        },
        {
            "inputs": [],
            "name": "defiBridgeProxy",
            "outputs": [
                {
                    "internalType": "address",
                    "name": "",
                    "type": "address"
                }
            ],
            "stateMutability": "view",
            "type": "function"
        },
        {
            "inputs": [
                {
                    "internalType": "uint256",
                    "name": "assetId",
                    "type": "uint256"
                },
                {
                    "internalType": "uint256",
                    "name": "amount",
                    "type": "uint256"
                },
                {
                    "internalType": "address",
                    "name": "owner",
                    "type": "address"
                },
                {
                    "internalType": "bytes32",
                    "name": "proofHash",
                    "type": "bytes32"
                }
            ],
            "name": "depositPendingFunds",
            "outputs": [],
            "stateMutability": "payable",
            "type": "function"
        },
        {
            "inputs": [
                {
                    "internalType": "uint256",
                    "name": "assetId",
                    "type": "uint256"
                },
                {
                    "internalType": "uint256",
                    "name": "amount",
                    "type": "uint256"
                },
                {
                    "internalType": "address",
                    "name": "depositorAddress",
                    "type": "address"
                },
                {
                    "internalType": "bytes32",
                    "name": "proofHash",
                    "type": "bytes32"
                },
                {
                    "internalType": "uint256",
                    "name": "deadline",
                    "type": "uint256"
                },
                {
                    "internalType": "uint8",
                    "name": "v",
                    "type": "uint8"
                },
                {
                    "internalType": "bytes32",
                    "name": "r",
                    "type": "bytes32"
                },
                {
                    "internalType": "bytes32",
                    "name": "s",
                    "type": "bytes32"
                }
            ],
            "name": "depositPendingFundsPermit",
            "outputs": [],
            "stateMutability": "nonpayable",
            "type": "function"
        },
        {
            "inputs": [
                {
                    "internalType": "uint256",
                    "name": "assetId",
                    "type": "uint256"
                },
                {
                    "internalType": "uint256",
                    "name": "amount",
                    "type": "uint256"
                },
                {
                    "internalType": "address",
                    "name": "depositorAddress",
                    "type": "address"
                },
                {
                    "internalType": "bytes32",
                    "name": "proofHash",
                    "type": "bytes32"
                },
                {
                    "internalType": "uint256",
                    "name": "nonce",
                    "type": "uint256"
                },
                {
                    "internalType": "uint256",
                    "name": "deadline",
                    "type": "uint256"
                },
                {
                    "internalType": "uint8",
                    "name": "v",
                    "type": "uint8"
                },
                {
                    "internalType": "bytes32",
                    "name": "r",
                    "type": "bytes32"
                },
                {
                    "internalType": "bytes32",
                    "name": "s",
                    "type": "bytes32"
                }
            ],
            "name": "depositPendingFundsPermitNonStandard",
            "outputs": [],
            "stateMutability": "nonpayable",
            "type": "function"
        },
        {
            "inputs": [
                {
                    "internalType": "address",
                    "name": "",
                    "type": "address"
                },
                {
                    "internalType": "bytes32",
                    "name": "",
                    "type": "bytes32"
                }
            ],
            "name": "depositProofApprovals",
            "outputs": [
                {
                    "internalType": "bool",
                    "name": "",
                    "type": "bool"
                }
            ],
            "stateMutability": "view",
            "type": "function"
        },
        {
            "inputs": [],
            "name": "escapeBlockLowerBound",
            "outputs": [
                {
                    "internalType": "uint256",
                    "name": "",
                    "type": "uint256"
                }
            ],
            "stateMutability": "view",
            "type": "function"
        },
        {
            "inputs": [],
            "name": "escapeBlockUpperBound",
            "outputs": [
                {
                    "internalType": "uint256",
                    "name": "",
                    "type": "uint256"
                }
            ],
            "stateMutability": "view",
            "type": "function"
        },
        {
            "inputs": [
                {
                    "internalType": "uint256",
                    "name": "",
                    "type": "uint256"
                }
            ],
            "name": "ethPayments",
            "outputs": [
                {
                    "internalType": "uint256",
                    "name": "",
                    "type": "uint256"
                }
            ],
            "stateMutability": "view",
            "type": "function"
        },
        {
            "inputs": [],
            "name": "getAsyncDefiInteractionHashes",
            "outputs": [
                {
                    "internalType": "bytes32[]",
                    "name": "res",
                    "type": "bytes32[]"
                }
            ],
            "stateMutability": "view",
            "type": "function"
        },
        {
            "inputs": [
                {
                    "internalType": "uint256",
                    "name": "bridgeAddressId",
                    "type": "uint256"
                }
            ],
            "name": "getBridgeGasLimit",
            "outputs": [
                {
                    "internalType": "uint256",
                    "name": "",
                    "type": "uint256"
                }
            ],
            "stateMutability": "view",
            "type": "function"
        },
        {
            "inputs": [],
            "name": "getDataSize",
            "outputs": [
                {
                    "internalType": "uint256",
                    "name": "dataSize",
                    "type": "uint256"
                }
            ],
            "stateMutability": "view",
            "type": "function"
        },
        {
            "inputs": [],
            "name": "getDefiInteractionHashes",
            "outputs": [
                {
                    "internalType": "bytes32[]",
                    "name": "res",
                    "type": "bytes32[]"
                }
            ],
            "stateMutability": "view",
            "type": "function"
        },
        {
            "inputs": [],
            "name": "getEscapeHatchStatus",
            "outputs": [
                {
                    "internalType": "bool",
                    "name": "",
                    "type": "bool"
                },
                {
                    "internalType": "uint256",
                    "name": "",
                    "type": "uint256"
                }
            ],
            "stateMutability": "view",
            "type": "function"
        },
        {
            "inputs": [],
            "name": "getPendingDefiInteractionHashes",
            "outputs": [
                {
                    "internalType": "uint256",
                    "name": "res",
                    "type": "uint256"
                }
            ],
            "stateMutability": "view",
            "type": "function"
        },
        {
            "inputs": [
                {
                    "internalType": "uint256",
                    "name": "assetId",
                    "type": "uint256"
                }
            ],
            "name": "getSupportedAsset",
            "outputs": [
                {
                    "internalType": "address",
                    "name": "",
                    "type": "address"
                }
            ],
            "stateMutability": "view",
            "type": "function"
        },
        {
            "inputs": [],
            "name": "getSupportedAssets",
            "outputs": [
                {
                    "internalType": "address[]",
                    "name": "",
                    "type": "address[]"
                },
                {
                    "internalType": "uint256[]",
                    "name": "",
                    "type": "uint256[]"
                }
            ],
            "stateMutability": "view",
            "type": "function"
        },
        {
            "inputs": [
                {
                    "internalType": "uint256",
                    "name": "bridgeAddressId",
                    "type": "uint256"
                }
            ],
            "name": "getSupportedBridge",
            "outputs": [
                {
                    "internalType": "address",
                    "name": "",
                    "type": "address"
                }
            ],
            "stateMutability": "view",
            "type": "function"
        },
        {
            "inputs": [],
            "name": "getSupportedBridges",
            "outputs": [
                {
                    "internalType": "address[]",
                    "name": "",
                    "type": "address[]"
                },
                {
                    "internalType": "uint256[]",
                    "name": "",
                    "type": "uint256[]"
                }
            ],
            "stateMutability": "view",
            "type": "function"
        },
        {
            "inputs": [
                {
                    "internalType": "uint256",
                    "name": "assetId",
                    "type": "uint256"
                },
                {
                    "internalType": "address",
                    "name": "userAddress",
                    "type": "address"
                }
            ],
            "name": "getUserPendingDeposit",
            "outputs": [
                {
                    "internalType": "uint256",
                    "name": "userPendingDeposit",
                    "type": "uint256"
                }
            ],
            "stateMutability": "view",
            "type": "function"
        },
        {
            "inputs": [
                {
                    "internalType": "address",
                    "name": "_verifierAddress",
                    "type": "address"
                },
                {
                    "internalType": "uint256",
                    "name": "_escapeBlockLowerBound",
                    "type": "uint256"
                },
                {
                    "internalType": "uint256",
                    "name": "_escapeBlockUpperBound",
                    "type": "uint256"
                },
                {
                    "internalType": "address",
                    "name": "_defiBridgeProxy",
                    "type": "address"
                },
                {
                    "internalType": "address",
                    "name": "_contractOwner",
                    "type": "address"
                },
                {
                    "internalType": "bytes32",
                    "name": "_initDataRoot",
                    "type": "bytes32"
                },
                {
                    "internalType": "bytes32",
                    "name": "_initNullRoot",
                    "type": "bytes32"
                },
                {
                    "internalType": "bytes32",
                    "name": "_initRootRoot",
                    "type": "bytes32"
                },
                {
                    "internalType": "uint32",
                    "name": "_initDatasize",
                    "type": "uint32"
                },
                {
                    "internalType": "bool",
                    "name": "_allowThirdPartyContracts",
                    "type": "bool"
                }
            ],
            "name": "initialize",
            "outputs": [],
            "stateMutability": "nonpayable",
            "type": "function"
        },
        {
            "inputs": [
                {
                    "internalType": "uint256",
                    "name": "rollupId",
                    "type": "uint256"
                },
                {
                    "internalType": "uint256",
                    "name": "chunk",
                    "type": "uint256"
                },
                {
                    "internalType": "uint256",
                    "name": "totalChunks",
                    "type": "uint256"
                },
                {
                    "internalType": "bytes",
                    "name": "",
                    "type": "bytes"
                }
            ],
            "name": "offchainData",
            "outputs": [],
            "stateMutability": "nonpayable",
            "type": "function"
        },
        {
            "inputs": [],
            "name": "owner",
            "outputs": [
                {
                    "internalType": "address",
                    "name": "",
                    "type": "address"
                }
            ],
            "stateMutability": "view",
            "type": "function"
        },
        {
            "inputs": [],
            "name": "pause",
            "outputs": [],
            "stateMutability": "nonpayable",
            "type": "function"
        },
        {
            "inputs": [],
            "name": "paused",
            "outputs": [
                {
                    "internalType": "bool",
                    "name": "",
                    "type": "bool"
                }
            ],
            "stateMutability": "view",
            "type": "function"
        },
        {
            "inputs": [
                {
                    "internalType": "uint256",
                    "name": "",
                    "type": "uint256"
                }
            ],
            "name": "pendingDefiInteractions",
            "outputs": [
                {
                    "internalType": "uint256",
                    "name": "bridgeId",
                    "type": "uint256"
                },
                {
                    "internalType": "uint256",
                    "name": "totalInputValue",
                    "type": "uint256"
                }
            ],
            "stateMutability": "view",
            "type": "function"
        },
        {
            "inputs": [],
            "name": "prevDefiInteractionsHash",
            "outputs": [
                {
                    "internalType": "bytes32",
                    "name": "",
                    "type": "bytes32"
                }
            ],
            "stateMutability": "view",
            "type": "function"
        },
        {
            "inputs": [
                {
                    "internalType": "uint256",
                    "name": "interactionNonce",
                    "type": "uint256"
                }
            ],
            "name": "processAsyncDefiInteraction",
            "outputs": [
                {
                    "internalType": "bool",
                    "name": "",
                    "type": "bool"
                }
            ],
            "stateMutability": "nonpayable",
            "type": "function"
        },
        {
            "inputs": [
                {
                    "internalType": "bytes",
                    "name": "",
                    "type": "bytes"
                },
                {
                    "internalType": "bytes",
                    "name": "signatures",
                    "type": "bytes"
                }
            ],
            "name": "processRollup",
            "outputs": [],
            "stateMutability": "nonpayable",
            "type": "function"
        },
        {
            "inputs": [
                {
                    "internalType": "uint256",
                    "name": "interactionNonce",
                    "type": "uint256"
                }
            ],
            "name": "receiveEthFromBridge",
            "outputs": [],
            "stateMutability": "payable",
            "type": "function"
        },
        {
            "inputs": [],
            "name": "renounceOwnership",
            "outputs": [],
            "stateMutability": "nonpayable",
            "type": "function"
        },
        {
            "inputs": [
                {
                    "internalType": "address",
                    "name": "",
                    "type": "address"
                }
            ],
            "name": "rollupProviders",
            "outputs": [
                {
                    "internalType": "bool",
                    "name": "",
                    "type": "bool"
                }
            ],
            "stateMutability": "view",
            "type": "function"
        },
        {
            "inputs": [],
            "name": "rollupStateHash",
            "outputs": [
                {
                    "internalType": "bytes32",
                    "name": "",
                    "type": "bytes32"
                }
            ],
            "stateMutability": "view",
            "type": "function"
        },
        {
            "inputs": [
                {
                    "internalType": "bool",
                    "name": "_flag",
                    "type": "bool"
                }
            ],
            "name": "setAllowThirdPartyContracts",
            "outputs": [],
            "stateMutability": "nonpayable",
            "type": "function"
        },
        {
            "inputs": [
                {
                    "internalType": "address",
                    "name": "defiBridgeProxyAddress",
                    "type": "address"
                }
            ],
            "name": "setDefiBridgeProxy",
            "outputs": [],
            "stateMutability": "nonpayable",
            "type": "function"
        },
        {
            "inputs": [
                {
                    "internalType": "address",
                    "name": "providerAddress",
                    "type": "address"
                },
                {
                    "internalType": "bool",
                    "name": "valid",
                    "type": "bool"
                }
            ],
            "name": "setRollupProvider",
            "outputs": [],
            "stateMutability": "nonpayable",
            "type": "function"
        },
        {
            "inputs": [
                {
                    "internalType": "address",
                    "name": "linkedToken",
                    "type": "address"
                },
                {
                    "internalType": "uint256",
                    "name": "gasLimit",
                    "type": "uint256"
                }
            ],
            "name": "setSupportedAsset",
            "outputs": [],
            "stateMutability": "nonpayable",
            "type": "function"
        },
        {
            "inputs": [
                {
                    "internalType": "address",
                    "name": "linkedBridge",
                    "type": "address"
                },
                {
                    "internalType": "uint256",
                    "name": "gasLimit",
                    "type": "uint256"
                }
            ],
            "name": "setSupportedBridge",
            "outputs": [],
            "stateMutability": "nonpayable",
            "type": "function"
        },
        {
            "inputs": [
                {
                    "internalType": "address",
                    "name": "_verifierAddress",
                    "type": "address"
                }
            ],
            "name": "setVerifier",
            "outputs": [],
            "stateMutability": "nonpayable",
            "type": "function"
        },
        {
            "inputs": [
                {
                    "internalType": "uint256",
                    "name": "",
                    "type": "uint256"
                }
            ],
            "name": "supportedAssets",
            "outputs": [
                {
                    "internalType": "address",
                    "name": "",
                    "type": "address"
                }
            ],
            "stateMutability": "view",
            "type": "function"
        },
        {
            "inputs": [
                {
                    "internalType": "uint256",
                    "name": "",
                    "type": "uint256"
                }
            ],
            "name": "supportedBridges",
            "outputs": [
                {
                    "internalType": "address",
                    "name": "",
                    "type": "address"
                }
            ],
            "stateMutability": "view",
            "type": "function"
        },
        {
            "inputs": [
                {
                    "internalType": "address",
                    "name": "newOwner",
                    "type": "address"
                }
            ],
            "name": "transferOwnership",
            "outputs": [],
            "stateMutability": "nonpayable",
            "type": "function"
        },
        {
            "inputs": [],
            "name": "verifier",
            "outputs": [
                {
                    "internalType": "address",
                    "name": "verifier",
                    "type": "address"
                }
            ],
            "stateMutability": "view",
            "type": "function"
        }
    ],
    "bytecode": "0x608060405234801561001057600080fd5b506142b7806100206000396000f3fe60806040526004361061027d5760003560e01c80638da5cb5b1161014f578063dcefed85116100c1578063f25b39df1161007a578063f25b39df14610805578063f2fde38b14610832578063f5bcde9a14610852578063f81cccbe14610867578063fb0ce18514610887578063fb3c764f146108a757600080fd5b8063dcefed8514610736578063e0d16c3214610763578063e393635514610783578063e5406dbf146107a3578063e9271bd3146107b8578063f21c69bb146107d857600080fd5b8063a3d205f411610113578063a3d205f414610666578063b045009c1461069e578063be71f8a4146106b4578063c68dbb37146106e0578063caa3455314610700578063d8ba36371461072057600080fd5b80638da5cb5b146105ce57806391dfe78f146105ec57806397bcbf401461060c578063999e36141461062c578063a2b096e41461064657600080fd5b80635ad1def3116101f35780637d036b27116101ac5780637d036b27146104ff5780637ff48afb1461051d5780638188f468146105305780638456cb59146105505780638666c0a9146105655780638afceb391461058557600080fd5b80635ad1def3146104215780635c975abb1461046157806360a8b18a14610479578063715018a614610499578063781e0432146104ae5780637ba3e7ae146104e957600080fd5b8063208254431161024557806320825443146103595780632b7ac3f3146103795780633b880652146103975780634354021e146103b957806345041e97146103d95780635437988d1461040157600080fd5b8063035611191461028257806305d1fe4c146102c25780630ceee68c146102e557806312a536231461031d5780631ab9c60314610343575b600080fd5b34801561028e57600080fd5b506102af61029d366004613a7c565b60a66020526000908152604090205481565b6040519081526020015b60405180910390f35b3480156102ce57600080fd5b506102d76108c7565b6040516102b9929190613a95565b3480156102f157600080fd5b50609e54610305906001600160a01b031681565b6040516001600160a01b0390911681526020016102b9565b61034161032b366004613a7c565b600090815260a560205260409020805434019055565b005b34801561034f57600080fd5b506102af609d5481565b34801561036557600080fd5b50610341610374366004613b62565b6109d7565b34801561038557600080fd5b50609c546001600160a01b0316610305565b3480156103a357600080fd5b506103ac610a4c565b6040516102b99190613bfe565b3480156103c557600080fd5b506103416103d4366004613c39565b610aae565b3480156103e557600080fd5b50609c5460d081901c6103ff90811660c09290921c16016102af565b34801561040d57600080fd5b5061034161041c366004613cb0565b610b9d565b34801561042d57600080fd5b5061045161043c366004613cb0565b60a36020526000908152604090205460ff1681565b60405190151581526020016102b9565b34801561046d57600080fd5b5060655460ff16610451565b34801561048557600080fd5b50610305610494366004613a7c565b610c11565b3480156104a557600080fd5b50610341610c9f565b3480156104ba57600080fd5b506104516104c9366004613ccb565b609b60209081526000928352604080842090915290825290205460ff1681565b3480156104f557600080fd5b506102af60a85481565b34801561050b57600080fd5b50609c5460a01c63ffffffff166102af565b61034161052b366004613cf5565b610cd5565b34801561053c57600080fd5b5061045161054b366004613a7c565b610dad565b34801561055c57600080fd5b50610341611161565b34801561057157600080fd5b50610341610580366004613ccb565b611193565b34801561059157600080fd5b506105b96105a0366004613a7c565b60a4602052600090815260409020805460019091015482565b604080519283526020830191909152016102b9565b3480156105da57600080fd5b506033546001600160a01b0316610305565b3480156105f857600080fd5b50610341610607366004613d40565b6112a7565b34801561061857600080fd5b50610341610627366004613d77565b611330565b34801561063857600080fd5b506097546104519060ff1681565b34801561065257600080fd5b50610341610661366004613e1d565b611492565b34801561067257600080fd5b506102af610681366004613e3a565b6000918252609a6020908152604080842090915290825290205490565b3480156106aa57600080fd5b506102af609f5481565b3480156106c057600080fd5b506106c96114cf565b6040805192151583526020830191909152016102b9565b3480156106ec57600080fd5b506103056106fb366004613a7c565b61153e565b34801561070c57600080fd5b5061034161071b366004613cb0565b611568565b34801561072c57600080fd5b506102af60a05481565b34801561074257600080fd5b506102af610751366004613a7c565b60a56020526000908152604090205481565b34801561076f57600080fd5b5061030561077e366004613a7c565b6115b4565b34801561078f57600080fd5b5061034161079e366004613a7c565b6115ee565b3480156107af57600080fd5b506102d7611631565b3480156107c457600080fd5b506103416107d3366004613e66565b61173f565b3480156107e457600080fd5b506102af6107f3366004613a7c565b60a76020526000908152604090205481565b34801561081157600080fd5b506102af610820366004613a7c565b600090815260a7602052604090205490565b34801561083e57600080fd5b5061034161084d366004613cb0565b611825565b34801561085e57600080fd5b506103ac6118c0565b34801561087357600080fd5b50610341610882366004613ed3565b61191a565b34801561089357600080fd5b506103416108a2366004613ccb565b611a1d565b3480156108b357600080fd5b506103056108c2366004613a7c565b611b24565b606080600060a28054905067ffffffffffffffff8111156108ea576108ea613f3f565b604051908082528060200260200182016040528015610913578160200160208202803683370190505b50905060005b60a25481101561096e5760a76000610932836001613f6b565b81526020019081526020016000205482828151811061095357610953613f83565b602090810291909101015261096781613f99565b9050610919565b5060a281818054806020026020016040519081016040528092919081815260200182805480156109c757602002820191906000526020600020905b81546001600160a01b031681526001909101906020018083116109a9575b5050505050915092509250509091565b60655460ff1615610a035760405162461bcd60e51b81526004016109fa90613fb4565b60405180910390fd5b60408051858152602081018590523381830152905186917fb92710e3fad9222f817fcd828bd1ce3612ad0cd1c8bd5f3a3f4b8d85c4444621919081900360600190a25050505050565b60606000610a646000609c5460c01c6103ff16905090565b90506098600052602060002060405192506020820260200183016040528183526020830160005b83811015610aa757828101548252602090910190600101610a8b565b5050505090565b60655460ff1615610ad15760405162461bcd60e51b81526004016109fa90613fb4565b610ad9611b34565b6000610ae48a610c11565b6040516323f2ebc360e21b81526001600160a01b038a8116600483015230602483015260448201899052606482018890526001608483015260ff871660a483015260c4820186905260e4820185905291925090821690638fcbaf0c9061010401600060405180830381600087803b158015610b5e57600080fd5b505af1158015610b72573d6000803e3d6000fd5b50505050610b828a828a8c611b59565b8615610b9157610b91876115ee565b50505050505050505050565b6033546001600160a01b03163314610bc75760405162461bcd60e51b81526004016109fa90613fde565b609c80546001600160a01b0319166001600160a01b0383169081179091556040517fd24015cc99cc1700cafca3042840a1d8ac1e3964fd2e0e37ea29c654056ee32790600090a250565b6000631fffffff821115610c3857604051630104ef3360e21b815260040160405180910390fd5b81610c4557506000919050565b600060a1610c54600185614013565b81548110610c6457610c64613f83565b6000918252602090912001546001600160a01b0316905080610c9957604051633f0ef8af60e21b815260040160405180910390fd5b92915050565b6033546001600160a01b03163314610cc95760405162461bcd60e51b81526004016109fa90613fde565b610cd36000611c60565b565b60655460ff1615610cf85760405162461bcd60e51b81526004016109fa90613fb4565b610d00611b34565b83610d3557823414610d255760405163f2be5ced60e01b815260040160405180910390fd5b610d30848385611cb2565b610d98565b3415610d545760405163d08ba85b60e01b815260040160405180910390fd5b6001600160a01b0382163314610d7d576040516310325cb360e01b815260040160405180910390fd5b6000610d8885610c11565b9050610d9685828587611b59565b505b8015610da757610da7816115ee565b50505050565b600080610dbc609c5460e01c90565b905080610dd457610dd4609c8054600160e01b179055565b600083815260a460205260409020805460019091015481610e085760405163f5122be160e01b815260040160405180910390fd5b6000610e1383611cf0565b9050600080600080610e25858b611f03565b60a26000527faaf4f58de99300cfadc4585755f376d5fa747d5bc561d5bd9d710de1f91bf42c63ffffffff8c160154939750919550935091506001600160a01b031680610e8557604051635db2cc4360e11b815260040160405180910390fd5b600060405180606001604052808981526020018d81526020018860c0015167ffffffffffffffff1681525090506000806000846001600160a01b0316639b07d3428a8a8a8a89602001518a604001516040518763ffffffff1660e01b8152600401610ef596959493929190614085565b6060604051808303816000875af1158015610f14573d6000803e3d6000fd5b505050506040513d601f19601f82011682018060405250810190610f3891906140df565b92509250925080610f6f578c610f5a57610f5a609c8054600160e01b19169055565b5060009e9d5050505050505050505050505050565b602080850151600090815260a490915260408120558115801590610fa85750600086604001516003811115610fa657610fa661402a565b145b15610fc9576040516313749ce360e11b8152600481018390526024016109fa565b82158015610fd5575081155b15610ff357610fee858a866000015187602001516121e9565b611013565b61100385888587602001516121e9565b61101385878487602001516121e9565b6000845160208601516000851460008714161592506040518f81528160208201528260408201528660608201528560808201528360a08201526020600060c08360025afa50600080516020614262833981519152600051069250609860005260206000209150609c548060c01c6103ff168160d01c6103ff1661020081836001010111156110aa57632c52558760e11b8452600484fd5b50928301939093555060010160c01b6103ff60c01b1990911617609c55602085015185516040518f917f692cf5822a02f5edf084dc7249b3a06293621e069f11975ed70908ed10ed2e2c9161112c9190899089908890938452602084019290925260408301521515606082015260a06080820181905260009082015260c00190565b60405180910390a38d61114b5761114b609c8054600160e01b19169055565b5060019f9e505050505050505050505050505050565b6033546001600160a01b0316331461118b5760405162461bcd60e51b81526004016109fa90613fde565b610cd361228c565b6033546001600160a01b031633148015906111b1575060975460ff16155b156111cf5760405163023ae9f760e31b815260040160405180910390fd5b6001600160a01b0382166111f65760405163146bdfa960e01b815260040160405180910390fd5b60a2805460018101825560008290527faaf4f58de99300cfadc4585755f376d5fa747d5bc561d5bd9d710de1f91bf42d0180546001600160a01b0319166001600160a01b0385161790555461124a82612301565b600082815260a7602052604090819020829055516001600160a01b0385169183917f0e62be7fe47a9095143143f8ee61bab3ade27b661223fed33e16122ffe1f284d9161129a9190815260200190565b60405180910390a3505050565b6033546001600160a01b031633146112d15760405162461bcd60e51b81526004016109fa90613fde565b6001600160a01b038216600081815260a36020908152604091829020805460ff191685151590811790915591519182527f46359ce9dbb6c7f9a375b44072210287916d3de725fc8927a8e762047e4a8424910160405180910390a25050565b600061133c600161232f565b90508015611354576000805461ff0019166101001790555b61135c6123bc565b61136587611825565b61136d6123eb565b604080516000815260208101889052908101869052606081018590527f2e4ab7889ab3139204945f9e722c7a8fdb84e66439d787bd066c3d896dba04ea608082015260a090819020609d55609c80546001600160c01b031916600160a01b63ffffffff8716026001600160a01b0319908116919091176001600160a01b038f811691909117909255609e8054909116918b16919091179055609f8b90558990556097805460ff19168315151790557f14e0f351ade4ba10438e9b15f66ab2e6389eea5ae870d6e8b2df1418b2e6fd5b60a8558015611485576000805461ff0019169055604051600181527f7f26b83ff96e1f2b6a682f133852f6798a09c465da95921460cefb38474024989060200160405180910390a15b5050505050505050505050565b6033546001600160a01b031633146114bc5760405162461bcd60e51b81526004016109fa90613fde565b6097805460ff1916911515919091179055565b60008060004390506000609f5460a054836114ea919061412e565b10159050600081156115175760a054611503908461412e565b60a0546115109190614013565b9050611534565b60a054611524908461412e565b609f546115319190614013565b90505b9094909350915050565b60a1818154811061154e57600080fd5b6000918252602090912001546001600160a01b0316905081565b6033546001600160a01b031633146115925760405162461bcd60e51b81526004016109fa90613fde565b609e80546001600160a01b0319166001600160a01b0392909216919091179055565b600060a26115c3600184614013565b815481106115d3576115d3613f83565b6000918252602090912001546001600160a01b031692915050565b60655460ff16156116115760405162461bcd60e51b81526004016109fa90613fb4565b33600052609b602052604060002060205280600052600160406000205550565b606080600060a18054905067ffffffffffffffff81111561165457611654613f3f565b60405190808252806020026020018201604052801561167d578160200160208202803683370190505b50905060005b60a1548110156116d85760a6600061169c836001613f6b565b8152602001908152602001600020548282815181106116bd576116bd613f83565b60209081029190910101526116d181613f99565b9050611683565b5060a181818054806020026020016040519081016040528092919081815260200182805480156109c7576020028201919060005260206000209081546001600160a01b031681526001909101906020018083116109a9575050505050915092509250509091565b60655460ff16156117625760405162461bcd60e51b81526004016109fa90613fb4565b61176a611b34565b600061177589610c11565b60405163d505accf60e01b81526001600160a01b038981166004830152306024830152604482018b90526064820188905260ff8716608483015260a4820186905260c482018590529192509082169063d505accf9060e401600060405180830381600087803b1580156117e757600080fd5b505af11580156117fb573d6000803e3d6000fd5b5050505061180b8982898b611b59565b851561181a5761181a866115ee565b505050505050505050565b6033546001600160a01b0316331461184f5760405162461bcd60e51b81526004016109fa90613fde565b6001600160a01b0381166118b45760405162461bcd60e51b815260206004820152602660248201527f4f776e61626c653a206e6577206f776e657220697320746865207a65726f206160448201526564647265737360d01b60648201526084016109fa565b6118bd81611c60565b50565b606060006118d86000609c5460d01c6103ff16905090565b905060996000526020600020604051925060208202602001830160405281835260208301600083811015610aa757828101548252602090910190600101610a8b565b60655460ff161561193d5760405162461bcd60e51b81526004016109fa90613fb4565b611945611b34565b611956609c8054600160e01b179055565b60006119606114cf565b5033600090815260a3602052604090205490915060ff168061197f5750805b61199c576040516383633aab60e01b815260040160405180910390fd5b60008060006119a961241a565b92509250925060006119ba8461277a565b9050611a018488888080601f016020809104026020016040519081016040528093929190818152602001838380828437600092019190915250889250879150869050612794565b611a0b84826127fe565b61181a609c8054600160e01b19169055565b6033546001600160a01b03163314801590611a3b575060975460ff16155b15611a595760405163023ae9f760e31b815260040160405180910390fd5b6001600160a01b038216611a8057604051631ba4e9c960e21b815260040160405180910390fd5b60a1805460018101825560008290527faadc37b8ba5645e62f4546802db221593a94729ccbfc5a97d01365a88f6498780180546001600160a01b0319166001600160a01b03851617905554611ad482612890565b600082815260a6602052604090819020829055516001600160a01b0385169183917f85ac039d1da307b778050ca29271ac915424bac011342c9452960f6679b18ff09161129a9190815260200190565b60a2818154811061154e57600080fd5b609c5460e01c80156118bd57604051630399d78d60e31b815260040160405180910390fd5b611b62846128ba565b604051636eb1769f60e11b81526001600160a01b0383811660048301523060248301526000919085169063dd62ed3e90604401602060405180830381865afa158015611bb2573d6000803e3d6000fd5b505050506040513d601f19601f82011682018060405250810190611bd69190614150565b905081811015611bf957604051637bf8af0360e01b815260040160405180910390fd5b611c05848430856128df565b611c10858484611cb2565b604080518681526001600160a01b03851660208201529081018390527feaa18152488ce5959073c9c79c88ca90b3d96c00de1f118cfaad664c3dab06b99060600160405180910390a15050505050565b603380546001600160a01b038381166001600160a01b0319831681179093556040519116919082907f8be0079c531659141344cd1fd0a4f28419497f9722a3daafe3b4186f6b6457e090600090a35050565b611cbb836128ba565b82600052609a6020526040600020602052816000526040600020805482810181811015611ce757600080fd5b90915550505050565b604080516101c081018252600060208083018290526101a083019190915263ffffffff8416808352633fffffff9185901c821693830193909352603e84901c81166060830152605c84901c81166080830152607a84901c1660a082015267ffffffffffffffff60b884901c1660c08201526001603d84901c811660e0830152605b84901c8116610100830152607984901c8116610120830152609784901c8116610140830152609884901c81168114610160830152609984901c81168114610180830152909160a291611dc291614013565b81548110611dd257611dd2613f83565b6000918252602080832091909101546001600160a01b0316838201528251825260a7905260409020546101a0820152610160810151158015611e18575060008160600151115b15611e365760405163059a275d60e41b815260040160405180910390fd5b806101800151158015611e4d575060008160a00151115b15611e6b5760405163059a275d60e41b815260040160405180910390fd5b8061016001518015611e84575080606001518160400151145b15611eaa578060400151604051630ec0ab1d60e31b81526004016109fa91815260200190565b60008161018001518015611ec15750816101400151155b9050808015611ed757508160a001518260800151145b15611efd57816080015160405163f23e3f9560e01b81526004016109fa91815260200190565b50919050565b611f2460408051606081018252600080825260208201819052909182015290565b611f4560408051606081018252600080825260208201819052909182015290565b611f6660408051606081018252600080825260208201819052909182015290565b611f8760408051606081018252600080825260208201819052909182015290565b8560e0015115611fba5763200000008660400151611fa59190614013565b84526000602085015260036040850152612018565b604086018051855251611fcc90610c11565b6001600160a01b03166020850181905215611fe8576002611feb565b60015b846040019060038111156120015761200161402a565b908160038111156120145761201461402a565b9052505b85610120015115612039578482526000602083015260036040830152612097565b60808601805183525161204b90610c11565b6001600160a01b0316602083018190521561206757600261206a565b60015b826040019060038111156120805761208061402a565b908160038111156120935761209361402a565b9052505b856101000151156120e157632000000086606001516120b69190614013565b8352600060208401526040830160035b908160038111156120d9576120d961402a565b905250612145565b85610160015115612133576060860180518452516120fe90610c11565b6001600160a01b0316602084018190521561211a57600261211d565b60015b836040019060038111156120c6576120c661402a565b60008084526020840181905260408401525b8561014001511561217c57848152600060208201526040810160035b908160038111156121745761217461402a565b9052506121e0565b856101800151156121ce5760a08601805182525161219990610c11565b6001600160a01b031660208201819052156121b55760026121b8565b60015b816040019060038111156121615761216161402a565b60008082526020820181905260408201525b92959194509250565b6001836040015160038111156122015761220161402a565b141561224a57600081815260a5602052604090205482111561223657604051631def2c6960e31b815260040160405180910390fd5b600081815260a56020526040812055610da7565b6002836040015160038111156122625761226261402a565b14801561226f5750600082115b15610da7576020830151612285818630866128df565b5050505050565b60655460ff16156122af5760405162461bcd60e51b81526004016109fa90613fb4565b6065805460ff191660011790557f62e78cea01bee320cd4e420270b5ea74000d11b0c9f74754ebdbfc544b05a2586122e43390565b6040516001600160a01b03909116815260200160405180910390a1565b60006188b882101561231657506188b8919050565b624c4b4082111561232b5750624c4b40919050565b5090565b60008054610100900460ff1615612376578160ff1660011480156123525750303b155b61236e5760405162461bcd60e51b81526004016109fa90614169565b506000919050565b60005460ff80841691161061239d5760405162461bcd60e51b81526004016109fa90614169565b506000805460ff191660ff92909216919091179055600190565b919050565b600054610100900460ff166123e35760405162461bcd60e51b81526004016109fa906141b7565b610cd361292e565b600054610100900460ff166124125760405162461bcd60e51b81526004016109fa906141b7565b610cd361295e565b60408051610100808201835261299182526129a56020808401829052838501919091526129d0606084018190526129e5608085015260a0840181905260c08401526129fa60e084015283516111c46004359081013560448201359081046111c883013563ffffffff908116828104808402821415019092029096028481016111e0019098526111c08881018086529498919760009795968a0195602486019589948594613a74949391926111cc013590911690888a376111c098909801976111a9888101988a97509091010193505b8684111561251f5760078735168089528060051b83015193505061251187898563ffffffff16565b9650610100880197506124e9565b505050506111c088810151604051600092828604808c048082028d1415019384900393909261010084029260043560240182376111c08101905060208202810191505b8181101561259f5760206000848960025afa61257d57600080fd5b6000516000805160206142628339815191529006815295820195602001612562565b841561271c576000925083602081146125eb5760108114612613576040811461263b5760018114612663576002811461268b57600481146126b357600881146126db57600196506126ff565b7f0df0e06ab8a02ce2ff08babd7144ab23ca2e99ddf318080cf88602eeb8913d4493506126ff565b7f1c52c159b4dae66c3dcf33b44d4d61ead6bc4d260f882ac6ba34dccf78892ca493506126ff565b7f1f83672815ac9b3ca31732d641784035834e96b269eaf6a2e759bf4fcc8e5bfd93506126ff565b7f22dd983f8337d97d56071f7986209ab2ee6039a422242e89126701c6ee005af093506126ff565b7f076a27c79e5ace2a3d47f9dd2e83e4ff6ea8872b3c2218f66c92b89b55f3656093506126ff565b7f2f0c70a5bf5460465e9902f9c96be324e8064e762a5de52589fdb97cbce3c6ee93506126ff565b7f240ed0de145447ff0ceff2aa477f43e0e2ed7f3543ee3d8832f158ec76b183a993505b5060208502820191505b8181101561271c57828152602001612709565b6040519450602060008683038760025afa61273657600080fd5b5050505050600080516020614262833981519152600051069650801561276f5760405163192cf60f60e11b815260040160405180910390fd5b505050505050909192565b6111a08101516001600160a01b038111156123b757600080fd5b60006127a08684612a15565b90506127ad868587612aab565b60006127b98784612b7e565b9050817f14054a15b39bfd65ec00fc6d15c7e5f9cbc1dc6f452cbefa359b4da61ad89fb682336040516127ed929190614202565b60405180910390a250505050505050565b60005b601081101561288b576000612816848361306e565b9050600061282b858460200201610b80015190565b90508015612878578161284a57600080600080848861c350f150612878565b600061285583610c11565b905061287681868460a660008881526020019081526020016000205461308a565b505b50508061288490613f99565b9050612801565b505050565b600061d6d88210156128a5575061d6d8919050565b6216e36082111561232b57506216e360919050565b631fffffff8111156118bd57604051630104ef3360e21b815260040160405180910390fd5b6040516323b872dd60e01b8152836004820152826024820152816044820152602060006064836000895af190506001600051163d1517808216612926573d6000803e3d6000fd5b505050505050565b600054610100900460ff166129555760405162461bcd60e51b81526004016109fa906141b7565b610cd333611c60565b600054610100900460ff166129855760405162461bcd60e51b81526004016109fa906141b7565b6065805460ff19169055565b600061299e836001613f6b565b9392505050565b600060a0602084016020840137601460c0840160cc840137600460d4840160fc840137505060b90190565b60006080602084016020840137505060810190565b60006060602084016020840137505060610190565b600060405163d0426f7b60e01b815260040160405180910390fd5b60405160009063ffffffff600480356111cc810135929092168083016111ec01939290910135036111c719019060ac815360316001820153608c6002820153605d600382015360406004820152846024820152816044820152818360648301376001600160a01b03609c541692506000806064840183865afa9250505080612aa1573d6000803e3d6000fd5b5061299e836130c1565b60006111e0808501906101008581028701909101905b81831015612b755760a08301518015612b6857835160e085015160c08601516001831415612b50578487206001600160a01b0382166000908152609b6020908152604080832084845290915290205460ff16612b43578989018051606082526000612b2b84613216565b9050612b3881848761332f565b509052606098909801975b612b4e838387613434565b505b8260021415612b6457612b6484828461347f565b5050505b6101008401935050612ac1565b50505050505050565b60606000612b8e84611180015190565b905060a8548114612bc05760a8546040516344008eeb60e11b81526109fa918391600401918252602082015260400190565b600080612bcb6134f2565b90925090506000612bdc8284614013565b609c80546103ff60d01b191660d09290921b9190911790555050505060208381015160009190612c0c919061422c565b905060008061018086019150609c5460d01c6103ff169050612c53604051806080016040528060008152602001600081526020016000151581526020016000151581525090565b60405190506080810160405260005b6020811015612fa157835180612c785750612fa1565b61040085015180612c9c5760405163b246041360e01b815260040160405180910390fd5b6000612ca783611cf0565b9050600080600080612cb9858d611f03565b935093509350935060405163097b28f560e31b815260048101905060208601518082525084516020820152602085015160408201526040850151606082015283516080820152602084015160a0820152604084015160c0820152825160e082015260208301516101008201526040830151610120820152815161014082015260208201516101608201526040820151610180820152866101a08201528c6101c082015260c0860151806101e08301525060a56102008201528e61022082015260008061024460048403609e546101a08b0151f43d6000833e8060018114612db85760008c52600060208d0152600060408d0152600060608d0152612dd8565b82518c52602083015160208d0152604083015160408d0152600160608d01525b505050846101800151612ded57600060208a01525b604089015160018114612f35576040518781528a51602082015260208b0151604082015260608b0151606082015260a0608082015260608b015115612e5b57600060a08201528d897f692cf5822a02f5edf084dc7249b3a06293621e069f11975ed70908ed10ed2e2c60c084a35b60608b0151612eb5573d60a08201523d602081066020038115150281600060c085013e60008260c0018401528f8b7f692cf5822a02f5edf084dc7249b3a06293621e069f11975ed70908ed10ed2e2c83850160c00186a350505b8881528d60208201528760408201528a51606082015260208b0151608082015260608b015160a08201526020600060c08360025afa505060008051609990915260008051602061426283398151915290067f72a152ddfb8e864297c917af52ea6c1c68aead0fee1a62673fcc7e0c94979d008c01556001909a0199612f7c565b6040518781528d897f38ce48f4c2f3454bcf130721f25a4262b2ff2c8e36af937b30edf01ba481eb1d602084a3508c60005260a46020526040600020888155876001820155505b5060018c019b5060208b019a505050505050505080612f9a90613f99565b9050612c62565b50609c548060c01c6103ff166103ff848201118015612fcb57632c52558760e11b60005260046000fd5b50609860009081527f72a152ddfb8e864297c917af52ea6c1c68aead0fee1a62673fcc7e0c94979d008501907f2237a976fa961f5921fd19f2b03c925c725d77b20ce8f790c19709c03de4d814905b8381101561303257818101548382015560010161301a565b5050506103ff60c01b1990840160d01b166303ff03ff60c01b1990911617609c5560008061305e613514565b60a8559998505050505050505050565b602081028201610980015163ffffffff811115610c9957600080fd5b5a81156130945750805b60405163a9059cbb60e01b815284600482015283602482015260008060448360008a87f150505050505050565b6000806000806000806130d3876135dd565b945094509450945094506000609d54905080851461310d5760405162d3f77d60e61b815260048101869052602481018590526044016109fa565b609c5463ffffffff600160a01b9091048116908416818161313057613130614118565b0663ffffffff1660001415613180578063ffffffff168363ffffffff161461317b57604051633c30f36360e11b815263ffffffff8085166004830152821660248201526044016109fa565b6131e1565b60008463ffffffff168263ffffffff168161319d5761319d614118565b068583010363ffffffff169050808463ffffffff16146131df57604051633c30f36360e11b815263ffffffff85166004820152602481018290526044016109fa565b505b5050609d92909255609c805463ffffffff9390920192909216600160a01b0263ffffffff60a01b199091161790555092915050565b60008061322283613686565b90506040517f19457468657265756d205369676e6564204d6573736167653a0a32313000000060208201527f5369676e696e672074686973206d6573736167652077696c6c20616c6c6f7720603d8201527f796f75722070656e64696e672066756e647320746f206265207370656e742069605d8201527f6e20417a746563207472616e73616374696f6e3a0a0a30780000000000000000607d82015260208201516095820152604082015160b58201527f0a0a494d504f5254414e543a204f6e6c79207369676e20746865206d6573736160d58201527f676520696620796f752074727573742074686520636c69656e7400000000000060f582015260ef602082012092505050919050565b6000806001600160a01b03831661335957604051630d57e35160e41b815260040160405180910390fd5b604051508351858552606085015160408601518060608801526020870151604088015281602088015260208760808960015afa601c8314601b84141760608514167f7fffffffffffffffffffffffffffffff5d576e7357a4501ddfe92f46681b20a1831016169450505084518614600081146133d4576133d9565b855192505b5084528015199190911690816134025760405163451f145560e11b815260040160405180910390fd5b826001600160a01b0316816001600160a01b03161461228557604051631468054760e31b815260040160405180910390fd5b61343d836128ba565b6000838152609a602090815260408083209091528382529020805482810390915581118015610da757604051638e8af4f960e01b815260040160405180910390fd5b613488816128ba565b6001600160a01b0382166134af576040516336f8cff560e11b815260040160405180910390fd5b806134c6576000806000808686617530f150505050565b60006134d182610c11565b9050610da781848660a660008781526020019081526020016000205461308a565b609c546103ff60d082901c16908190602082111561350f57602091505b509091565b606060008060006135236134f2565b909250905060006135348284614013565b905060405194506020850160206104000186016040528286526099600052602060002060005b84811015613577578381018201546020820284015260010161355a565b5b60208110156135b1577f2d25a1e3a51eb293004c4b56abe12ed0da6bca2b4a21936752a85d102593c1b460208202840152600101613578565b5050602060006104008360025afa50506000805160206142628339815191526000510693505050509091565b604081015160608201516000918291829160011b906020860163ffffffff808411908311171561360c57600080fd5b805195506040518681526060820151602082015260a0820151604082015260e08201516060820152610120820151608082015260a0812095506001870181526080820151602082015260c082015160408201526101008201516060820152610140820151608082015260a081209450505091939590929450565b6060816136ee576040519050604081527f303030303030303030303030303030303030303030303030303030303030303060208201527f3030303030303030303030303030303030303030303030303030303030303030604082015260608101604052919050565b506040517f3030303130323033303430353036303730383039306130623063306430653066607e8201527f3130313131323133313431353136313731383139316131623163316431653166609e8201527f323032313232323332343235323632373238323932613262326332643265326660be8201527f333033313332333333343335333633373338333933613362336333643365336660de8201527f343034313432343334343435343634373438343934613462346334643465346660fe8201527f353035313532353335343535353635373538353935613562356335643565356661011e8201527f363036313632363336343635363636373638363936613662366336643665366661013e8201527f373037313732373337343735373637373738373937613762376337643765376661015e8201527f383038313832383338343835383638373838383938613862386338643865386661017e8201527f393039313932393339343935393639373938393939613962396339643965396661019e8201527f61306131613261336134613561366137613861396161616261636164616561666101be8201527f62306231623262336234623562366237623862396261626262636264626562666101de8201527f63306331633263336334633563366337633863396361636263636364636563666101fe8201527f643064316432643364346435643664376438643964616462646364646465646661021e8201527f653065316532653365346535653665376538653965616562656365646565656661023e8201527f663066316632663366346635663666376638663966616662666366646665666661025e8201526060810182613a3b565b6101fe600182901b8116830151601e52600782901c8116830151601c52600f82901c8116830151601a52601782901c8116830151601852601f82901c8116830151601652602782901c8116830151601452602f82901c8116830151601252603782901c8116830151601052603f82901c8116830151600e52604782901c8116830151600c52604f82901c8116830151600a52605782901c8116830151600852605f82901c8116830151600652606782901c8116830151600452606f82901c811683015160025260779190911c160151600052565b60408352613a498282613967565b601e51604084015260801c613a5e8282613967565b5050601e51602082015260608101604052919050565b610cd361424b565b600060208284031215613a8e57600080fd5b5035919050565b604080825283519082018190526000906020906060840190828701845b82811015613ad75781516001600160a01b031684529284019290840190600101613ab2565b5050508381038285015284518082528583019183019060005b81811015613b0c57835183529284019291840191600101613af0565b5090979650505050505050565b60008083601f840112613b2b57600080fd5b50813567ffffffffffffffff811115613b4357600080fd5b602083019150836020828501011115613b5b57600080fd5b9250929050565b600080600080600060808688031215613b7a57600080fd5b853594506020860135935060408601359250606086013567ffffffffffffffff811115613ba657600080fd5b613bb288828901613b19565b969995985093965092949392505050565b600081518084526020808501945080840160005b83811015613bf357815187529582019590820190600101613bd7565b509495945050505050565b60208152600061299e6020830184613bc3565b80356001600160a01b03811681146123b757600080fd5b803560ff811681146123b757600080fd5b60008060008060008060008060006101208a8c031215613c5857600080fd5b8935985060208a01359750613c6f60408b01613c11565b965060608a0135955060808a0135945060a08a01359350613c9260c08b01613c28565b925060e08a013591506101008a013590509295985092959850929598565b600060208284031215613cc257600080fd5b61299e82613c11565b60008060408385031215613cde57600080fd5b613ce783613c11565b946020939093013593505050565b60008060008060808587031215613d0b57600080fd5b8435935060208501359250613d2260408601613c11565b9396929550929360600135925050565b80151581146118bd57600080fd5b60008060408385031215613d5357600080fd5b613d5c83613c11565b91506020830135613d6c81613d32565b809150509250929050565b6000806000806000806000806000806101408b8d031215613d9757600080fd5b613da08b613c11565b995060208b0135985060408b01359750613dbc60608c01613c11565b9650613dca60808c01613c11565b955060a08b0135945060c08b0135935060e08b013592506101008b013563ffffffff81168114613df957600080fd5b91506101208b0135613e0a81613d32565b809150509295989b9194979a5092959850565b600060208284031215613e2f57600080fd5b813561299e81613d32565b60008060408385031215613e4d57600080fd5b82359150613e5d60208401613c11565b90509250929050565b600080600080600080600080610100898b031215613e8357600080fd5b8835975060208901359650613e9a60408a01613c11565b95506060890135945060808901359350613eb660a08a01613c28565b925060c0890135915060e089013590509295985092959890939650565b60008060008060408587031215613ee957600080fd5b843567ffffffffffffffff80821115613f0157600080fd5b613f0d88838901613b19565b90965094506020870135915080821115613f2657600080fd5b50613f3387828801613b19565b95989497509550505050565b634e487b7160e01b600052604160045260246000fd5b634e487b7160e01b600052601160045260246000fd5b60008219821115613f7e57613f7e613f55565b500190565b634e487b7160e01b600052603260045260246000fd5b6000600019821415613fad57613fad613f55565b5060010190565b60208082526010908201526f14185d5cd8589b194e881c185d5cd95960821b604082015260600190565b6020808252818101527f4f776e61626c653a2063616c6c6572206973206e6f7420746865206f776e6572604082015260600190565b60008282101561402557614025613f55565b500390565b634e487b7160e01b600052602160045260246000fd5b805182526020808201516001600160a01b03169083015260408101516004811061407a57634e487b7160e01b600052602160045260246000fd5b806040840152505050565b6101c081016140948289614040565b6140a16060830188614040565b6140ae60c0830187614040565b6140bc610120830186614040565b8361018083015267ffffffffffffffff83166101a0830152979650505050505050565b6000806000606084860312156140f457600080fd5b8351925060208401519150604084015161410d81613d32565b809150509250925092565b634e487b7160e01b600052601260045260246000fd5b60008261414b57634e487b7160e01b600052601260045260246000fd5b500690565b60006020828403121561416257600080fd5b5051919050565b6020808252602e908201527f496e697469616c697a61626c653a20636f6e747261637420697320616c72656160408201526d191e481a5b9a5d1a585b1a5e995960921b606082015260800190565b6020808252602b908201527f496e697469616c697a61626c653a20636f6e7472616374206973206e6f74206960408201526a6e697469616c697a696e6760a81b606082015260800190565b6040815260006142156040830185613bc3565b905060018060a01b03831660208301529392505050565b600081600019048311821515161561424657614246613f55565b500290565b634e487b7160e01b600052605160045260246000fdfe30644e72e131a029b85045b68181585d2833e84879b9709143e1f593f0000001a26469706673582212204dfc4bb5f40b429a411ddf359769647a9711d680497114f31fcb17b2294c11e364736f6c634300080a0033",
    "linkReferences": {},
    "deployedLinkReferences": {}
}