{
    "_format": "hh-sol-artifact-1",
    "contractName": "DummyDefiBridge",
    "sourceName": "contracts/test/DummyDefiBridge.sol",
    "abi": [
        {
            "inputs": [
                {
                    "internalType": "address",
                    "name": "_rollupProcessor",
                    "type": "address"
                },
                {
                    "internalType": "uint256",
                    "name": "_outputValueEth",
                    "type": "uint256"
                },
                {
                    "internalType": "uint256",
                    "name": "_outputValueToken",
                    "type": "uint256"
                },
                {
                    "internalType": "uint256",
                    "name": "_outputVirtualValueA",
                    "type": "uint256"
                },
                {
                    "internalType": "uint256",
                    "name": "_outputVirtualValueB",
                    "type": "uint256"
                }
            ],
            "stateMutability": "nonpayable",
            "type": "constructor"
        },
        {
            "inputs": [
                {
                    "internalType": "uint256",
                    "name": "",
                    "type": "uint256"
                }
            ],
            "name": "canFinalise",
            "outputs": [
                {
                    "internalType": "bool",
                    "name": "",
                    "type": "bool"
                }
            ],
            "stateMutability": "pure",
            "type": "function"
        },
        {
            "inputs": [
                {
                    "components": [
                        {
                            "internalType": "uint256",
                            "name": "id",
                            "type": "uint256"
                        },
                        {
                            "internalType": "address",
                            "name": "erc20Address",
                            "type": "address"
                        },
                        {
                            "internalType": "enum AztecTypes.AztecAssetType",
                            "name": "assetType",
                            "type": "uint8"
                        }
                    ],
                    "internalType": "struct AztecTypes.AztecAsset",
                    "name": "",
                    "type": "tuple"
                },
                {
                    "components": [
                        {
                            "internalType": "uint256",
                            "name": "id",
                            "type": "uint256"
                        },
                        {
                            "internalType": "address",
                            "name": "erc20Address",
                            "type": "address"
                        },
                        {
                            "internalType": "enum AztecTypes.AztecAssetType",
                            "name": "assetType",
                            "type": "uint8"
                        }
                    ],
                    "internalType": "struct AztecTypes.AztecAsset",
                    "name": "",
                    "type": "tuple"
                },
                {
                    "components": [
                        {
                            "internalType": "uint256",
                            "name": "id",
                            "type": "uint256"
                        },
                        {
                            "internalType": "address",
                            "name": "erc20Address",
                            "type": "address"
                        },
                        {
                            "internalType": "enum AztecTypes.AztecAssetType",
                            "name": "assetType",
                            "type": "uint8"
                        }
                    ],
                    "internalType": "struct AztecTypes.AztecAsset",
                    "name": "outputAssetA",
                    "type": "tuple"
                },
                {
                    "components": [
                        {
                            "internalType": "uint256",
                            "name": "id",
                            "type": "uint256"
                        },
                        {
                            "internalType": "address",
                            "name": "erc20Address",
                            "type": "address"
                        },
                        {
                            "internalType": "enum AztecTypes.AztecAssetType",
                            "name": "assetType",
                            "type": "uint8"
                        }
                    ],
                    "internalType": "struct AztecTypes.AztecAsset",
                    "name": "outputAssetB",
                    "type": "tuple"
                },
                {
                    "internalType": "uint256",
                    "name": "",
                    "type": "uint256"
                },
                {
                    "internalType": "uint256",
                    "name": "interactionNonce",
                    "type": "uint256"
                },
                {
                    "internalType": "uint64",
                    "name": "auxData",
                    "type": "uint64"
                },
                {
                    "internalType": "address",
                    "name": "",
                    "type": "address"
                }
            ],
            "name": "convert",
            "outputs": [
                {
                    "internalType": "uint256",
                    "name": "",
                    "type": "uint256"
                },
                {
                    "internalType": "uint256",
                    "name": "",
                    "type": "uint256"
                },
                {
                    "internalType": "bool",
                    "name": "",
                    "type": "bool"
                }
            ],
            "stateMutability": "payable",
            "type": "function"
        },
        {
            "inputs": [
                {
                    "components": [
                        {
                            "internalType": "uint256",
                            "name": "id",
                            "type": "uint256"
                        },
                        {
                            "internalType": "address",
                            "name": "erc20Address",
                            "type": "address"
                        },
                        {
                            "internalType": "enum AztecTypes.AztecAssetType",
                            "name": "assetType",
                            "type": "uint8"
                        }
                    ],
                    "internalType": "struct AztecTypes.AztecAsset",
                    "name": "",
                    "type": "tuple"
                },
                {
                    "components": [
                        {
                            "internalType": "uint256",
                            "name": "id",
                            "type": "uint256"
                        },
                        {
                            "internalType": "address",
                            "name": "erc20Address",
                            "type": "address"
                        },
                        {
                            "internalType": "enum AztecTypes.AztecAssetType",
                            "name": "assetType",
                            "type": "uint8"
                        }
                    ],
                    "internalType": "struct AztecTypes.AztecAsset",
                    "name": "",
                    "type": "tuple"
                },
                {
                    "components": [
                        {
                            "internalType": "uint256",
                            "name": "id",
                            "type": "uint256"
                        },
                        {
                            "internalType": "address",
                            "name": "erc20Address",
                            "type": "address"
                        },
                        {
                            "internalType": "enum AztecTypes.AztecAssetType",
                            "name": "assetType",
                            "type": "uint8"
                        }
                    ],
                    "internalType": "struct AztecTypes.AztecAsset",
                    "name": "outputAssetA",
                    "type": "tuple"
                },
                {
                    "components": [
                        {
                            "internalType": "uint256",
                            "name": "id",
                            "type": "uint256"
                        },
                        {
                            "internalType": "address",
                            "name": "erc20Address",
                            "type": "address"
                        },
                        {
                            "internalType": "enum AztecTypes.AztecAssetType",
                            "name": "assetType",
                            "type": "uint8"
                        }
                    ],
                    "internalType": "struct AztecTypes.AztecAsset",
                    "name": "outputAssetB",
                    "type": "tuple"
                },
                {
                    "internalType": "uint256",
                    "name": "interactionNonce",
                    "type": "uint256"
                },
                {
                    "internalType": "uint64",
                    "name": "",
                    "type": "uint64"
                }
            ],
            "name": "finalise",
            "outputs": [
                {
                    "internalType": "uint256",
                    "name": "",
                    "type": "uint256"
                },
                {
                    "internalType": "uint256",
                    "name": "",
                    "type": "uint256"
                },
                {
                    "internalType": "bool",
                    "name": "",
                    "type": "bool"
                }
            ],
            "stateMutability": "payable",
            "type": "function"
        },
        {
            "inputs": [],
            "name": "rollupProcessor",
            "outputs": [
                {
                    "internalType": "address",
                    "name": "",
                    "type": "address"
                }
            ],
            "stateMutability": "view",
            "type": "function"
        },
        {
            "stateMutability": "payable",
            "type": "receive"
        }
    ],
    "bytecode": "0x61012060405234801561001157600080fd5b5060405161086338038061086383398101604081905261003091610053565b6001600160a01b0390941660805260a09290925260c05260e052610100526100a8565b600080600080600060a0868803121561006b57600080fd5b85516001600160a01b038116811461008257600080fd5b602087015160408801516060890151608090990151929a91995097965090945092505050565b60805160a05160c05160e0516101005161074e6101156000396000818161017001526102570152600081816101410152610228015260006104560152600081816102d8015261036c0152600081816096015281816101bd01528181610349015261042e015261074e6000f3fe6080604052600436106100435760003560e01c806326c3b5151461004f5780632a113d6e146100845780637224f4eb146100d05780639b07d3421461010157600080fd5b3661004a57005b600080fd5b61006261005d366004610585565b610114565b6040805193845260208401929092521515908201526060015b60405180910390f35b34801561009057600080fd5b506100b87f000000000000000000000000000000000000000000000000000000000000000081565b6040516001600160a01b03909116815260200161007b565b3480156100dc57600080fd5b506100f16100eb366004610617565b50600190565b604051901515815260200161007b565b61006261010f366004610630565b6101ae565b6000808067ffffffffffffffff851615801590610139576000935083925090506101a0565b60006101668b7f00000000000000000000000000000000000000000000000000000000000000008a610291565b905060006101958b7f00000000000000000000000000000000000000000000000000000000000000008b610291565b919550909350909150505b985098509895505050505050565b60008080336001600160a01b037f000000000000000000000000000000000000000000000000000000000000000016146102205760405162461bcd60e51b815260206004820152600f60248201526e696e76616c69642073656e6465722160881b604482015260640160405180910390fd5b600061024d887f000000000000000000000000000000000000000000000000000000000000000088610291565b9050600061027c887f000000000000000000000000000000000000000000000000000000000000000089610291565b919b919a506001995090975050505050505050565b60006003846040015160038111156102ab576102ab6106a5565b14156102b85750816104cd565b6001846040015160038111156102d0576102d06106a5565b14156103f3577f0000000000000000000000000000000000000000000000000000000000000000905060008260405160240161030e91815260200190565b60408051601f198184030181529181526020820180516001600160e01b03166312a5362360e01b179052519091506000906001600160a01b037f000000000000000000000000000000000000000000000000000000000000000016907f0000000000000000000000000000000000000000000000000000000000000000906103979085906106bb565b60006040518083038185875af1925050503d80600081146103d4576040519150601f19603f3d011682016040523d82523d6000602084013e6103d9565b606091505b50509050806103ec573d6000803e3d6000fd5b50506104cd565b60028460400151600381111561040b5761040b6106a5565b14156104cd5750602083015160405163095ea7b360e01b81526001600160a01b037f0000000000000000000000000000000000000000000000000000000000000000811660048301527f00000000000000000000000000000000000000000000000000000000000000006024830181905292169063095ea7b3906044016020604051808303816000875af11580156104a7573d6000803e3d6000fd5b505050506040513d601f19601f820116820180604052508101906104cb91906106f6565b505b9392505050565b80356001600160a01b03811681146104eb57600080fd5b919050565b60006060828403121561050257600080fd5b6040516060810181811067ffffffffffffffff8211171561053357634e487b7160e01b600052604160045260246000fd5b60405282358152905080610549602084016104d4565b602082015260408301356004811061056057600080fd5b6040919091015292915050565b803567ffffffffffffffff811681146104eb57600080fd5b600080600080600080600080610200898b0312156105a257600080fd5b6105ac8a8a6104f0565b97506105bb8a60608b016104f0565b96506105ca8a60c08b016104f0565b95506105da8a6101208b016104f0565b945061018089013593506101a089013592506105f96101c08a0161056d565b91506106086101e08a016104d4565b90509295985092959890939650565b60006020828403121561062957600080fd5b5035919050565b6000806000806000806101c0878903121561064a57600080fd5b61065488886104f0565b955061066388606089016104f0565b94506106728860c089016104f0565b93506106828861012089016104f0565b925061018087013591506106996101a0880161056d565b90509295509295509295565b634e487b7160e01b600052602160045260246000fd5b6000825160005b818110156106dc57602081860181015185830152016106c2565b818111156106eb576000828501525b509190910192915050565b60006020828403121561070857600080fd5b815180151581146104cd57600080fdfea26469706673582212206f0cb9821bdfcf7420c89817a9f317a5067c0aab71edc517fc9c022bebfd44c964736f6c634300080a0033",
    "linkReferences": {},
    "deployedLinkReferences": {}
}