{
    "_format": "hh-sol-artifact-1",
    "contractName": "MockVerificationKey",
    "sourceName": "contracts/verifier/keys/MockVerificationKey.sol",
    "abi": [
        {
            "inputs": [],
            "name": "get_verification_key",
            "outputs": [
                {
                    "components": [
                        {
                            "internalType": "uint256",
                            "name": "circuit_size",
                            "type": "uint256"
                        },
                        {
                            "internalType": "uint256",
                            "name": "num_inputs",
                            "type": "uint256"
                        },
                        {
                            "internalType": "uint256",
                            "name": "work_root",
                            "type": "uint256"
                        },
                        {
                            "internalType": "uint256",
                            "name": "domain_inverse",
                            "type": "uint256"
                        },
                        {
                            "internalType": "uint256",
                            "name": "work_root_inverse",
                            "type": "uint256"
                        },
                        {
                            "components": [
                                {
                                    "internalType": "uint256",
                                    "name": "x",
                                    "type": "uint256"
                                },
                                {
                                    "internalType": "uint256",
                                    "name": "y",
                                    "type": "uint256"
                                }
                            ],
                            "internalType": "struct StandardTypes.G1Point",
                            "name": "Q1",
                            "type": "tuple"
                        },
                        {
                            "components": [
                                {
                                    "internalType": "uint256",
                                    "name": "x",
                                    "type": "uint256"
                                },
                                {
                                    "internalType": "uint256",
                                    "name": "y",
                                    "type": "uint256"
                                }
                            ],
                            "internalType": "struct StandardTypes.G1Point",
                            "name": "Q2",
                            "type": "tuple"
                        },
                        {
                            "components": [
                                {
                                    "internalType": "uint256",
                                    "name": "x",
                                    "type": "uint256"
                                },
                                {
                                    "internalType": "uint256",
                                    "name": "y",
                                    "type": "uint256"
                                }
                            ],
                            "internalType": "struct StandardTypes.G1Point",
                            "name": "Q3",
                            "type": "tuple"
                        },
                        {
                            "components": [
                                {
                                    "internalType": "uint256",
                                    "name": "x",
                                    "type": "uint256"
                                },
                                {
                                    "internalType": "uint256",
                                    "name": "y",
                                    "type": "uint256"
                                }
                            ],
                            "internalType": "struct StandardTypes.G1Point",
                            "name": "QM",
                            "type": "tuple"
                        },
                        {
                            "components": [
                                {
                                    "internalType": "uint256",
                                    "name": "x",
                                    "type": "uint256"
                                },
                                {
                                    "internalType": "uint256",
                                    "name": "y",
                                    "type": "uint256"
                                }
                            ],
                            "internalType": "struct StandardTypes.G1Point",
                            "name": "QC",
                            "type": "tuple"
                        },
                        {
                            "components": [
                                {
                                    "internalType": "uint256",
                                    "name": "x",
                                    "type": "uint256"
                                },
                                {
                                    "internalType": "uint256",
                                    "name": "y",
                                    "type": "uint256"
                                }
                            ],
                            "internalType": "struct StandardTypes.G1Point",
                            "name": "SIGMA1",
                            "type": "tuple"
                        },
                        {
                            "components": [
                                {
                                    "internalType": "uint256",
                                    "name": "x",
                                    "type": "uint256"
                                },
                                {
                                    "internalType": "uint256",
                                    "name": "y",
                                    "type": "uint256"
                                }
                            ],
                            "internalType": "struct StandardTypes.G1Point",
                            "name": "SIGMA2",
                            "type": "tuple"
                        },
                        {
                            "components": [
                                {
                                    "internalType": "uint256",
                                    "name": "x",
                                    "type": "uint256"
                                },
                                {
                                    "internalType": "uint256",
                                    "name": "y",
                                    "type": "uint256"
                                }
                            ],
                            "internalType": "struct StandardTypes.G1Point",
                            "name": "SIGMA3",
                            "type": "tuple"
                        },
                        {
                            "internalType": "bool",
                            "name": "contains_recursive_proof",
                            "type": "bool"
                        },
                        {
                            "internalType": "uint256",
                            "name": "recursive_proof_indices",
                            "type": "uint256"
                        },
                        {
                            "components": [
                                {
                                    "internalType": "uint256",
                                    "name": "x0",
                                    "type": "uint256"
                                },
                                {
                                    "internalType": "uint256",
                                    "name": "x1",
                                    "type": "uint256"
                                },
                                {
                                    "internalType": "uint256",
                                    "name": "y0",
                                    "type": "uint256"
                                },
                                {
                                    "internalType": "uint256",
                                    "name": "y1",
                                    "type": "uint256"
                                }
                            ],
                            "internalType": "struct StandardTypes.G2Point",
                            "name": "g2_x",
                            "type": "tuple"
                        },
                        {
                            "internalType": "uint256",
                            "name": "zeta_pow_n",
                            "type": "uint256"
                        }
                    ],
                    "internalType": "struct StandardTypes.VerificationKey",
                    "name": "",
                    "type": "tuple"
                }
            ],
            "stateMutability": "pure",
            "type": "function"
        }
    ],
    "bytecode": "0x61076461003a600b82828239805160001a60731461002d57634e487b7160e01b600052600060045260246000fd5b30600052607381538281f3fe73000000000000000000000000000000000000000030146080604052600436106100355760003560e01c8063bd5794e21461003a575b600080fd5b610042610058565b60405161004f91906105c1565b60405180910390f35b61006061043a565b61006861043a565b6120006000820152601160208201527e6fab49b869ae62001deac878b2667bd31bf3e28e3a2d764aa49b8d9bbdd31060408201527f3062cb506d9a969cb702833453cd4c52654aa6a93775a2c5bf57d6844360800160608201527f1670ed58bfac610408e124db6a1cb6c8c8df74fa978188ca3b0b205aabd95dc960808201527f0be8a2b6819e5ed4fd15bb5cb484086e452297e53e83878519ea8dd5f7abbf2c60a0820151527f295a1fca477ff3f65be1f71f2f4fc2df95cb23bf05de6b9cd2779348570c9236602060a083015101527f0b051497e878ea0d54f0004fec15b1c6d3be2d8872a688e39d43b6149994209460c0820151527f19ae5022420456ca185141db41f6a64ed82b8a2217fd9d50f6dddb0dab725f45602060c083015101527f043a124edd1942909fbd2ba016716b174326462cf54f8c20e567eb39b858e83a60e0820151527f0d50bd8e2c83217fdbf3c150d51f3b9e4baa4b1dc3ee57e305d3896a53bc3562602060e083015101527f137d4c5f8e111374a1b162a273b058ac41c42735a7f26910443e48796206171c610100820151527f047e986785533350b315c24a1e029349870e22258c4c1293f7094a6376c1ab12602061010083015101527f06a31854eac27a0a9b65f9b098d3a47ca10ee3d5ae1c178d9704e94c8b889f4b610120820151527f08d9b7926623abaab8b5decac0415b3849c112d3396b5296ee3a7a0a34285469602061012083015101527f095f1b2a902ebe4a8351574b3ccbf9a2024b0e56b3d0cbe781b9244505d52894610140820151527f1314e8bb583f3166f76f0d1e1ce9f964c06d88e6bbecfc64ce38aab8df55f1fc602061014083015101527f0db72f65f3a6cf58085528d93d19b58ea26919ac206b240822616015185d2f3d610160820151527f2b3c4c58a3cc75c104c9f0f5af5218616b71d7430df19b2a1bd5f4ecc0dac64e602061016083015101527f09342cc8fc28c2fd14f3a3219c311575d4ab9adeba8385a53f201d8afba4312d610180820151527f1156442cf1bd1cd4d4583d3b21a054b3171b5452e4fa96a2ddcd769004ecd3d86020610180830151015260006101a082015260006101c08201527f260e01b251f6f1c7e7ff4e580791dee8ea51d87a358e038b4efe30fac09383c16101e0820151527f0118c4d5b837bcc2bc89b5b398b5974e9f5944073b32078b7e231fec938883b060206101e083015101527f04fc6369f7110fe3d25156c1bb9a72859cf2a04641f99ba4ee413c80da6a5fe460406101e083015101527f22febda3c0c0632a56475b4214e5615e11e6dd3f96e6cea2854a87d4dacc5e5560606101e083015101528091505090565b6040518061022001604052806000815260200160008152602001600081526020016000815260200160008152602001610486604051806040016040528060008152602001600081525090565b81526020016104a8604051806040016040528060008152602001600081525090565b81526020016104ca604051806040016040528060008152602001600081525090565b81526020016104ec604051806040016040528060008152602001600081525090565b815260200161050e604051806040016040528060008152602001600081525090565b8152602001610530604051806040016040528060008152602001600081525090565b8152602001610552604051806040016040528060008152602001600081525090565b8152602001610574604051806040016040528060008152602001600081525090565b8152602001600015158152602001600081526020016105b46040518060800160405280600081526020016000815260200160008152602001600081525090565b8152602001600081525090565b600061038082019050825182526020830151602083015260408301516040830152606083015160608301526080830151608083015260a083015161061260a084018280518252602090810151910152565b5060c0830151805160e084015260208101516101008401525060e08301516101206106498185018380518252602090810151910152565b610100850151915061016061066a8186018480518252602090810151910152565b9085015191506101a09061068a8583018480518252602090810151910152565b61014086015192506101e06106ab8187018580518252602090810151910152565b90860151805161022087015260209081015161024087015261018087015180516102608801528101516102808701529186015115156102a08601526101c08601516102c086015285015180516102e0860152908101516103008501526040810151610320850152606001516103408401525061020090920151610360909101529056fea264697066735822122051b1fb592993a40667b444ee3fc2023ff586e04d0ecc5c0eda9762474fbd2b5a64736f6c634300080a0033",
    "linkReferences": {},
    "deployedLinkReferences": {}
}