{
    "_format": "hh-sol-artifact-1",
    "contractName": "StandardVerifier",
    "sourceName": "contracts/verifier/StandardVerifier.sol",
    "abi": [
        {
            "inputs": [
                {
                    "internalType": "uint256",
                    "name": "",
                    "type": "uint256"
                },
                {
                    "internalType": "uint256",
                    "name": "",
                    "type": "uint256"
                }
            ],
            "name": "PUBLIC_INPUTS_HASH_VERIFICATION_FAILED",
            "type": "error"
        },
        {
            "inputs": [
                {
                    "internalType": "bytes",
                    "name": "",
                    "type": "bytes"
                },
                {
                    "internalType": "uint256",
                    "name": "public_inputs_hash",
                    "type": "uint256"
                }
            ],
            "name": "verify",
            "outputs": [
                {
                    "internalType": "bool",
                    "name": "",
                    "type": "bool"
                }
            ],
            "stateMutability": "view",
            "type": "function"
        }
    ],
    "bytecode": "0x608060405234801561001057600080fd5b5061147b806100206000396000f3fe608060405234801561001057600080fd5b506004361061002b5760003560e01c8063ac318c5d14610030575b600080fd5b61004361003e366004611187565b610057565b604051901515815260200160405180910390f35b600060043560240135828114908161009057604051634fac338560e11b8152600481018590526024810182905260440160405180910390fd5b5050600073__$4304bb55acce0afd6ca6e1ca0fc0f2f08d$__63bd5794e26040518163ffffffff1660e01b815260040161038060405180830381865af41580156100de573d6000803e3d6000fd5b505050506040513d601f19601f82011682018060405250810190610102919061131d565b805161020052602080820151610220526040820151610240526060820151610260526080820151610cc05260a0820180515161028052518101516102a05260c082018051516102c052518101516102e05260e082018051516103005251810151610320526101008201805151610340525181015161036052610120820180515161038052518101516103a05261014082018051516103c052518101516103e0526101608201805151610400525181015161042052610180820180515161044052510151610460526101a08101516104808190526101c08201516104a0527f260e01b251f6f1c7e7ff4e580791dee8ea51d87a358e038b4efe30fac09383c16104c0527f0118c4d5b837bcc2bc89b5b398b5974e9f5944073b32078b7e231fec938883b06104e0527f04fc6369f7110fe3d25156c1bb9a72859cf2a04641f99ba4ee413c80da6a5fe4610500527f22febda3c0c0632a56475b4214e5615e11e6dd3f96e6cea2854a87d4dacc5e55610520529091507f30644e72e131a029b85045b68181585d97816a916871ca8d3c208c16d87cfd47907f30644e72e131a029b85045b68181585d2833e84879b9709143e1f593f000000190600435602401901561039f576104a0516060602091820283019081013560cc90811b6040830135608890811b94840135604490811b8535019590950191909101610d0081905260e0840135831b60c0850135831b60a0860135871b6080870135010101610d20819052610160850135841b610140860135841b610120870135881b610100880135010101610d408190526101e086013590941b6101c086013590931b6101a086013590961b610180860135019590950191909101610d608190529293909290919087841088831016888410898310161661039957600080fd5b50505050505b60206102205102808201915050826020820135066105405282813506610560528260608201350661058052826040820135066105a0528260a0820135066105c052826080820135066105e0528260e082013506610600528260c0820135066106205282610120820135066106405282610100820135066106605282610160820135066106805282610140820135066106a052826101a0820135066106c05282610180820135066106e052816101c08201350661070052816101e0820135066107205281610200820135066107405281610220820135066107605281610240820135066107805281610260820135066107a052826102a0820135066107c05282610280820135066107e052826102e08201350661080052826102c08201350661082052506102005160e01b6000526102205160e01b600452600860002080610d80526024600435016020610220510260c00180826020610d80013760208101610d80209250505081810661084052806000526001602053602160002090508181066108605280600052610620516020526106005160405260606000209050818106610880528060005261066051602052610640516040526106a051606052610680516080526106e05160a0526106c05160c05260e060002090508181066108c052806108e052506108605161024051602080610220510203600061084051806001808860018160058709955081600786099450602460043501965086880197505b878710156106325786358a81018701808701848c8a099850848c8909975060208a01358d81018a01868a8201888a860909975086898886840909985050858d8b099950858d8a099850858110868510168516945060408b019a508e81108f85101661062957600080fd5b505050506105bf565b6020880197505b878710156106865786358b811061064f57600080fd5b82811082169150828b820890508b818801860994508b81878901018509935050818987099550818986099450602087019650610639565b5050816109e05280610a005250505050505050506108c051806102005160015b818110156106bb5784838409925080016106a6565b505080610a2052826001840382089050610cc051808403610260518582860886848409925086878488088209905086848409925086878488088209905086878886860988088209905061024051925086828609915086600188038708878485099450876001890389898b888d8b8c090909089650610a00519450849350878286099450848882870995508560206000526020805260206040528989880960605260028a036080528960a0526020600060c0600060055afa6107b45762461bcd60e51b600052602060045260206024527f50524f4f465f564552494649434154494f4e5f4641494c45445f545950455f3160445260646000fd5b600051965089818809905089898809965089828809915089838809965089868809955089848809965089610a00518b898a0909965089876109e05109610a405289868909610a605289828609610a805289818609610aa052505050505050505050610880516108405161086051836107a05185836107405101878861078051880986610720510101896107605189098761070051010109090984039150508282830980610ce052838182096108a0528383858687610a405189036107a051088888610aa0510909878886610a805109890387080809610ac05250506108e0516102205160008290529091506101e4602091820260043501019060c090829037505060e06000208181066109005280600052600160205381602160002006610920526002602053816021600020066109405260036020538160216000200661096052600460205381602160002006610980526005602053602160002090508181066109a05280600052506107e0516020526107c05160405261082051606052610800516080528060a0600020066109c052610840516108c05161086051610880518483850992508482610700510885818508868288886107605109088785610720510892508788848a8a6107805109088209905087866005098889610740518b898b860108088a8b8785088609099250508395506104405160005261046051602052878689898b6107a05186098c03090960405250600095506106005193506106205192508784850991508760038984870908888485091495508360605282608052866109c05188878a8b610ce051610a8051098608090860a05250505050506040610b206060600060075afa6040610ae060608060075afa166040610ae06080610ae060065afa1616610be0526108a051610700518290829009610280516000526102a051602052806040526040610b206060600060075afa6040610ae06080610ae060065afa166102c0516000526102e051602052838361072051096040526040610b206060600060075afa6040610ae06080610ae060065afa16811690506103005160005261032051602052838361074051096040526040610b206060600060075afa6040610ae06080610ae060065afa16811690506103405160005261036051602052836107205183096040526040610b206060600060075afa6040610ae06080610ae060065afa1681169050610380516000526103a051602052826040526040610b206060600060075afa6040610ae06080610ae060065afa1616610c00525050610640516106605160009190848280098560038783860908868384091493505081600052806020525050610a605182036040526040610b206060600060075afa6040610ae06080610ae060065afa1681169050610a2051610680516106a051858283098660038883860908878384091485169450508160005280602052505082610a6051840382096040526040610b206060600060075afa82166040610ae06080610ae060065afa1691506106c0516106e05185828309866003888386090887838409148516945050816000528060205250508283610a6051850383098209604052506040610b206060600060075afa81166040610ae06080610ae060065afa16905061054051610560518482830985600387838609088683840914841693505081600052806020525050610900516040526040610b206060600060075afa81166040610ae06080610ae060065afa169050610580516105a0518482830985600387838609088683840914841693505081600052806020525050610920516040526040610b206060600060075afa81166040610ae06080610ae060065afa1690506105c0516105e0518482830985600387838609088683840914841693505081600052806020525050610940516040526040610b206060600060075afa81166040610ae06080610ae060065afa1690506103c0516000526103e051602052610960516040526040610b206060600060075afa81166040610ae06080610ae060065afa1690506104005160005261042051602052610980516040526040610b206060600060075afa81166040610ae06080610ae060065afa16905080610c20525060016000526002602052808182838485866107005161090051098761072051610920510908866107405161094051090885610760516109605109088461078051610980510908610ac051840308826107a0516109c051090881036040526040610b206060600060075afa6040610ae06080610ae060065afa1680610c4052506109c0516108c05160006107c0516107e051868283098760038983860908888384091493505081600052806020525050816040526040610b206060600060075afa6040610ae06080610ae060065afa168116905061080051610820518682830987600389838609088883840914841693505081600052806020525050836102405185848609096040526040610b206060600060075afa81166040610ba06080610ae060065afa1690506107c0516000526107e0516020526108005160405261082051606052826080526040806060604060075afa81166040610b606080600060065afa169050610b80518503610b80526104805115610fe557610d00519150610d205185838409866003888387090887838409148316925050826000528060205250838384096040526040606080600060075afa81169050610d40519150610d605185838409866003888387090887838409148316925050826000528060205250604060006060600060075afa81169050610ba05160a052610bc05160c0526040610ba06080606060065afa81169050610b6051604052610b80516060526040610b606080600060065afa165b806110285762461bcd60e51b600052602060045260206024527f50524f4f465f564552494649434154494f4e5f4641494c45445f545950455f3260445260646000fd5b80610c60525050505050610ba051600052610bc0516020527f198e9393920d483a7260bfb731fb5d25f1aa493335a9e71297e485b7aef312c26040527f1800deef121f1e76426a00665e5c4479674322d4f75edadd46debd5cd992f6ed6060527f090689d0585ff075ec9e99ad690c3395bc4b313370b38ef355acdadcd122975b6080527f12c85ea5db8c6deb4aab71808dcb408fe3d1e7690c43d37b4ce6cc0166fa7daa60a052610b605160c052610b805160e0526104c051610100526104e051610120526105005161014052610520516101605260206000610180600060085afa80610c805250600051610ca052610be051610c0051610c2051610c4051610c6051610ca051610c805116161616161661117c5762461bcd60e51b600052602060045260206024527f50524f4f465f564552494649434154494f4e5f4641494c45445f545950455f3360445260646000fd5b600160005260206000f35b60008060006040848603121561119c57600080fd5b833567ffffffffffffffff808211156111b457600080fd5b818601915086601f8301126111c857600080fd5b8135818111156111d757600080fd5b8760208285010111156111e957600080fd5b6020928301989097509590910135949350505050565b604051610220810167ffffffffffffffff8111828210171561123157634e487b7160e01b600052604160045260246000fd5b60405290565b60006040828403121561124957600080fd5b6040516040810181811067ffffffffffffffff8211171561127a57634e487b7160e01b600052604160045260246000fd5b604052825181526020928301519281019290925250919050565b805180151581146112a457600080fd5b919050565b6000608082840312156112bb57600080fd5b6040516080810181811067ffffffffffffffff821117156112ec57634e487b7160e01b600052604160045260246000fd5b8060405250809150825181526020830151602082015260408301516040820152606083015160608201525092915050565b6000610380828403121561133057600080fd5b6113386111ff565b82518152602083015160208201526040830151604082015260608301516060820152608083015160808201526113718460a08501611237565b60a08201526113838460e08501611237565b60c082015261012061139785828601611237565b60e08301526101606113ab86828701611237565b6101008401526101a06113c087828801611237565b838501526101e092506113d587848801611237565b6101408501526113e9876102208801611237565b828501526113fb876102608801611237565b61018085015261140e6102a08701611294565b90840152506102c08401516101c083015261142d856102e086016112a9565b9082015261036092909201516102008301525091905056fea2646970667358221220cf1386b633412db59737f73a3f0e901808648e4d06edcf1c600a11b1ea3bbb9064736f6c634300080a0033",
    "linkReferences": {
        "contracts/verifier/keys/VerificationKey.sol": {
            "VerificationKey": [
                {
                    "length": 20,
                    "start": 182
                }
            ]
        }
    },
    "deployedLinkReferences": {
        "contracts/verifier/keys/VerificationKey.sol": {
            "VerificationKey": [
                {
                    "length": 20,
                    "start": 150
                }
            ]
        }
    }
}