{
    "_format": "hh-sol-artifact-1",
    "contractName": "MockVerifier",
    "sourceName": "contracts/test/MockVerifier.sol",
    "abi": [
        {
            "inputs": [
                {
                    "internalType": "bytes",
                    "name": "",
                    "type": "bytes"
                },
                {
                    "internalType": "uint256",
                    "name": "",
                    "type": "uint256"
                }
            ],
            "name": "verify",
            "outputs": [
                {
                    "internalType": "bool",
                    "name": "",
                    "type": "bool"
                }
            ],
            "stateMutability": "pure",
            "type": "function"
        }
    ],
    "bytecode": "0x608060405234801561001057600080fd5b5061015b806100206000396000f3fe608060405234801561001057600080fd5b506004361061002b5760003560e01c8063ac318c5d14610030575b600080fd5b61004661003e366004610070565b600192915050565b604051901515815260200160405180910390f35b634e487b7160e01b600052604160045260246000fd5b6000806040838503121561008357600080fd5b823567ffffffffffffffff8082111561009b57600080fd5b818501915085601f8301126100af57600080fd5b8135818111156100c1576100c161005a565b604051601f8201601f19908116603f011681019083821181831017156100e9576100e961005a565b8160405282815288602084870101111561010257600080fd5b82602086016020830137600060209382018401529896909101359650505050505056fea2646970667358221220eb161a3a17cdd494f25ae38ae0a1d5682cb371f59d90badc4b980f114ebd853264736f6c634300080a0033",
    "linkReferences": {},
    "deployedLinkReferences": {}
}