{
    "_format": "hh-sol-artifact-1",
    "contractName": "MockPriceFeed",
    "sourceName": "contracts/test/MockPriceFeed.sol",
    "abi": [
        {
            "inputs": [
                {
                    "internalType": "int256",
                    "name": "answer",
                    "type": "int256"
                }
            ],
            "stateMutability": "nonpayable",
            "type": "constructor"
        },
        {
            "inputs": [
                {
                    "internalType": "uint256",
                    "name": "",
                    "type": "uint256"
                }
            ],
            "name": "getAnswer",
            "outputs": [
                {
                    "internalType": "int256",
                    "name": "",
                    "type": "int256"
                }
            ],
            "stateMutability": "view",
            "type": "function"
        },
        {
            "inputs": [
                {
                    "internalType": "uint80",
                    "name": "_roundId",
                    "type": "uint80"
                }
            ],
            "name": "getRoundData",
            "outputs": [
                {
                    "internalType": "uint80",
                    "name": "roundId",
                    "type": "uint80"
                },
                {
                    "internalType": "int256",
                    "name": "answer",
                    "type": "int256"
                },
                {
                    "internalType": "uint256",
                    "name": "startedAt",
                    "type": "uint256"
                },
                {
                    "internalType": "uint256",
                    "name": "updatedAt",
                    "type": "uint256"
                },
                {
                    "internalType": "uint80",
                    "name": "answeredInRound",
                    "type": "uint80"
                }
            ],
            "stateMutability": "view",
            "type": "function"
        },
        {
            "inputs": [
                {
                    "internalType": "uint256",
                    "name": "",
                    "type": "uint256"
                }
            ],
            "name": "getTimestamp",
            "outputs": [
                {
                    "internalType": "uint256",
                    "name": "",
                    "type": "uint256"
                }
            ],
            "stateMutability": "view",
            "type": "function"
        },
        {
            "inputs": [],
            "name": "latestAnswer",
            "outputs": [
                {
                    "internalType": "int256",
                    "name": "",
                    "type": "int256"
                }
            ],
            "stateMutability": "view",
            "type": "function"
        },
        {
            "inputs": [],
            "name": "latestRound",
            "outputs": [
                {
                    "internalType": "uint256",
                    "name": "",
                    "type": "uint256"
                }
            ],
            "stateMutability": "view",
            "type": "function"
        },
        {
            "inputs": [
                {
                    "internalType": "int256",
                    "name": "answer",
                    "type": "int256"
                }
            ],
            "name": "setRoundData",
            "outputs": [],
            "stateMutability": "nonpayable",
            "type": "function"
        }
    ],
    "bytecode": "0x6080604052600080546001600160501b0319166103e817905534801561002457600080fd5b50604051610389380380610389833981016040819052610043916100ab565b61004c81610052565b506100fd565b600054610069906001600160501b031660016100c4565b600080546001600160501b0319166001600160501b03928316908117825581526001602090815260408083209490945581549092168152600290915220429055565b6000602082840312156100bd57600080fd5b5051919050565b60006001600160501b038281168482168083038211156100f457634e487b7160e01b600052601160045260246000fd5b01949350505050565b61027d8061010c6000396000f3fe608060405234801561001057600080fd5b50600436106100625760003560e01c806350d25bcd14610067578063668a0f02146100945780639a6fc8f5146100a5578063a4381d1f14610114578063b5ab58dc14610129578063b633620c14610149575b600080fd5b600080546001600160501b03168152600160205260409020545b6040519081526020015b60405180910390f35b6000546001600160501b0316610081565b6100e06100b33660046101c5565b6001600160501b038116600090815260026020908152604080832054600190925290912054919281908490565b604080516001600160501b03968716815260208101959095528401929092526060830152909116608082015260a00161008b565b6101276101223660046101f5565b610169565b005b6100816101373660046101f5565b60016020526000908152604090205481565b6100816101573660046101f5565b60026020526000908152604090205481565b600054610180906001600160501b0316600161020e565b6000805469ffffffffffffffffffff19166001600160501b03928316908117825581526001602090815260408083209490945581549092168152600290915220429055565b6000602082840312156101d757600080fd5b81356001600160501b03811681146101ee57600080fd5b9392505050565b60006020828403121561020757600080fd5b5035919050565b60006001600160501b0380831681851680830382111561023e57634e487b7160e01b600052601160045260246000fd5b0194935050505056fea2646970667358221220079825a3c15db6b3243ee9543e66f8326f2374da2208c762f856b5d18244214164736f6c634300080a0033",
    "linkReferences": {},
    "deployedLinkReferences": {}
}