{
    "_format": "hh-sol-artifact-1",
    "contractName": "DefiBridgeProxy",
    "sourceName": "contracts/DefiBridgeProxy.sol",
    "abi": [
        {
            "inputs": [
                {
                    "internalType": "uint256",
                    "name": "outputValueA",
                    "type": "uint256"
                },
                {
                    "internalType": "uint256",
                    "name": "outputValueB",
                    "type": "uint256"
                }
            ],
            "name": "ASYNC_NONZERO_OUTPUT_VALUES",
            "type": "error"
        },
        {
            "inputs": [],
            "name": "DEFI_BRIDGE_PROXY_TRANSFER_FAILED",
            "type": "error"
        },
        {
            "inputs": [],
            "name": "INCORRECT_ASSET_A_VALUE",
            "type": "error"
        },
        {
            "inputs": [],
            "name": "INCORRECT_ASSET_B_VALUE",
            "type": "error"
        },
        {
            "inputs": [],
            "name": "INSUFFICIENT_ETH_PAYMENT",
            "type": "error"
        },
        {
            "inputs": [
                {
                    "internalType": "uint256",
                    "name": "outputValue",
                    "type": "uint256"
                }
            ],
            "name": "OUTPUT_A_EXCEEDS_252_BITS",
            "type": "error"
        },
        {
            "inputs": [
                {
                    "internalType": "uint256",
                    "name": "outputValue",
                    "type": "uint256"
                }
            ],
            "name": "OUTPUT_B_EXCEEDS_252_BITS",
            "type": "error"
        },
        {
            "anonymous": false,
            "inputs": [
                {
                    "indexed": true,
                    "internalType": "address",
                    "name": "bridgeAddress",
                    "type": "address"
                },
                {
                    "indexed": false,
                    "internalType": "uint256",
                    "name": "outputValueA",
                    "type": "uint256"
                },
                {
                    "indexed": false,
                    "internalType": "uint256",
                    "name": "outputValueB",
                    "type": "uint256"
                },
                {
                    "indexed": false,
                    "internalType": "bool",
                    "name": "isAsync",
                    "type": "bool"
                }
            ],
            "name": "AztecBridgeInteraction",
            "type": "event"
        },
        {
            "inputs": [
                {
                    "internalType": "address",
                    "name": "bridgeAddress",
                    "type": "address"
                },
                {
                    "components": [
                        {
                            "internalType": "uint256",
                            "name": "id",
                            "type": "uint256"
                        },
                        {
                            "internalType": "address",
                            "name": "erc20Address",
                            "type": "address"
                        },
                        {
                            "internalType": "enum AztecTypes.AztecAssetType",
                            "name": "assetType",
                            "type": "uint8"
                        }
                    ],
                    "internalType": "struct AztecTypes.AztecAsset",
                    "name": "inputAssetA",
                    "type": "tuple"
                },
                {
                    "components": [
                        {
                            "internalType": "uint256",
                            "name": "id",
                            "type": "uint256"
                        },
                        {
                            "internalType": "address",
                            "name": "erc20Address",
                            "type": "address"
                        },
                        {
                            "internalType": "enum AztecTypes.AztecAssetType",
                            "name": "assetType",
                            "type": "uint8"
                        }
                    ],
                    "internalType": "struct AztecTypes.AztecAsset",
                    "name": "inputAssetB",
                    "type": "tuple"
                },
                {
                    "components": [
                        {
                            "internalType": "uint256",
                            "name": "id",
                            "type": "uint256"
                        },
                        {
                            "internalType": "address",
                            "name": "erc20Address",
                            "type": "address"
                        },
                        {
                            "internalType": "enum AztecTypes.AztecAssetType",
                            "name": "assetType",
                            "type": "uint8"
                        }
                    ],
                    "internalType": "struct AztecTypes.AztecAsset",
                    "name": "outputAssetA",
                    "type": "tuple"
                },
                {
                    "components": [
                        {
                            "internalType": "uint256",
                            "name": "id",
                            "type": "uint256"
                        },
                        {
                            "internalType": "address",
                            "name": "erc20Address",
                            "type": "address"
                        },
                        {
                            "internalType": "enum AztecTypes.AztecAssetType",
                            "name": "assetType",
                            "type": "uint8"
                        }
                    ],
                    "internalType": "struct AztecTypes.AztecAsset",
                    "name": "outputAssetB",
                    "type": "tuple"
                },
                {
                    "internalType": "uint256",
                    "name": "totalInputValue",
                    "type": "uint256"
                },
                {
                    "internalType": "uint256",
                    "name": "interactionNonce",
                    "type": "uint256"
                },
                {
                    "internalType": "uint256",
                    "name": "auxInputData",
                    "type": "uint256"
                },
                {
                    "internalType": "uint256",
                    "name": "ethPaymentsSlot",
                    "type": "uint256"
                },
                {
                    "internalType": "address",
                    "name": "rollupBeneficiary",
                    "type": "address"
                }
            ],
            "name": "convert",
            "outputs": [
                {
                    "internalType": "uint256",
                    "name": "outputValueA",
                    "type": "uint256"
                },
                {
                    "internalType": "uint256",
                    "name": "outputValueB",
                    "type": "uint256"
                },
                {
                    "internalType": "bool",
                    "name": "isAsync",
                    "type": "bool"
                }
            ],
            "stateMutability": "nonpayable",
            "type": "function"
        }
    ],
    "bytecode": "0x608060405234801561001057600080fd5b506105f8806100206000396000f3fe608060405234801561001057600080fd5b506004361061002b5760003560e01c80634bd947a814610030575b600080fd5b61004361003e36600461040f565b610064565b60408051938452602084019290925215159082015260600160405180910390f35b6000808060028c604001516003811115610080576100806104b5565b1415610095576100958c602001518e8a610250565b60028b6040015160038111156100ad576100ad6104b5565b14156100c2576100c28b602001518e8a610250565b8c6001600160a01b0381166326c3b51560018f6040015160038111156100ea576100ea6104b5565b148061010b575060018e604001516003811115610109576101096104b5565b145b610116576000610118565b8a5b8f8f8f8f8f8f8f8e6040518a63ffffffff1660e01b8152600401610143989796959493929190610510565b60606040518083038185885af1158015610161573d6000803e3d6000fd5b50505050506040513d601f19601f820116820180604052508101906101869190610584565b9195509350915081156101d45760008411806101a25750600083115b156101cf5760405163015d98b960e41b815260048101859052602481018490526044015b60405180910390fd5b61023f565b8d600160fc1b85106101fc57604051630b3bfdc560e01b8152600481018690526024016101c6565b600160fc1b841061022357604051636bfa50d360e01b8152600481018590526024016101c6565b6102308c868b848b610298565b61023d8b858b848b610298565b505b509a509a509a975050505050505050565b60405163a9059cbb60e01b8152826004820152816024820152602060006044836000885af190506001600051163d1517808216610291573d6000803e3d6000fd5b5050505050565b6001856040015160038111156102b0576102b06104b5565b14156102f2576000838152602082905260409020805490818611156102e8576040516365dfb76560e11b815260040160405180910390fd5b6000905550610291565b60028560400151600381111561030a5761030a6104b5565b1480156103175750600084115b156102915761029185602001518330876040516323b872dd60e01b8152836004820152826024820152816044820152602060006064836000895af190506001600051163d151780821661036e573d6000803e3d6000fd5b505050505050565b80356001600160a01b038116811461038d57600080fd5b919050565b6000606082840312156103a457600080fd5b6040516060810181811067ffffffffffffffff821117156103d557634e487b7160e01b600052604160045260246000fd5b604052823581529050806103eb60208401610376565b602082015260408301356004811061040257600080fd5b6040919091015292915050565b6000806000806000806000806000806102408b8d03121561042f57600080fd5b6104388b610376565b99506104478c60208d01610392565b98506104568c60808d01610392565b97506104658c60e08d01610392565b96506104758c6101408d01610392565b95506101a08b013594506101c08b013593506101e08b013592506102008b013591506104a46102208c01610376565b90509295989b9194979a5092959850565b634e487b7160e01b600052602160045260246000fd5b805182526020808201516001600160a01b03169083015260408101516004811061050557634e487b7160e01b600052602160045260246000fd5b806040840152505050565b610200810161051f828b6104cb565b61052c606083018a6104cb565b61053960c08301896104cb565b6105476101208301886104cb565b6101808201959095526101a081019390935267ffffffffffffffff919091166101c08301526001600160a01b03166101e090910152949350505050565b60008060006060848603121561059957600080fd5b8351925060208401519150604084015180151581146105b757600080fd5b80915050925092509256fea2646970667358221220ad5b8ca0cac8126fcda9416eca2b4f3b30909678f4235d12d9fa7b6a2c34bffc64736f6c634300080a0033",
    "linkReferences": {},
    "deployedLinkReferences": {}
}