{
    "_format": "hh-sol-artifact-1",
    "contractName": "ERC20Permit",
    "sourceName": "contracts/test/ERC20Permit.sol",
    "abi": [
        {
            "inputs": [
                {
                    "internalType": "string",
                    "name": "symbol_",
                    "type": "string"
                }
            ],
            "stateMutability": "nonpayable",
            "type": "constructor"
        },
        {
            "anonymous": false,
            "inputs": [
                {
                    "indexed": true,
                    "internalType": "address",
                    "name": "owner",
                    "type": "address"
                },
                {
                    "indexed": true,
                    "internalType": "address",
                    "name": "spender",
                    "type": "address"
                },
                {
                    "indexed": false,
                    "internalType": "uint256",
                    "name": "value",
                    "type": "uint256"
                }
            ],
            "name": "Approval",
            "type": "event"
        },
        {
            "anonymous": false,
            "inputs": [
                {
                    "indexed": true,
                    "internalType": "address",
                    "name": "from",
                    "type": "address"
                },
                {
                    "indexed": true,
                    "internalType": "address",
                    "name": "to",
                    "type": "address"
                },
                {
                    "indexed": false,
                    "internalType": "uint256",
                    "name": "value",
                    "type": "uint256"
                }
            ],
            "name": "Transfer",
            "type": "event"
        },
        {
            "inputs": [],
            "name": "DOMAIN_SEPARATOR",
            "outputs": [
                {
                    "internalType": "bytes32",
                    "name": "",
                    "type": "bytes32"
                }
            ],
            "stateMutability": "view",
            "type": "function"
        },
        {
            "inputs": [],
            "name": "PERMIT_TYPEHASH",
            "outputs": [
                {
                    "internalType": "bytes32",
                    "name": "",
                    "type": "bytes32"
                }
            ],
            "stateMutability": "view",
            "type": "function"
        },
        {
            "inputs": [],
            "name": "PERMIT_TYPEHASH_NON_STANDARD",
            "outputs": [
                {
                    "internalType": "bytes32",
                    "name": "",
                    "type": "bytes32"
                }
            ],
            "stateMutability": "view",
            "type": "function"
        },
        {
            "inputs": [
                {
                    "internalType": "address",
                    "name": "owner",
                    "type": "address"
                },
                {
                    "internalType": "address",
                    "name": "spender",
                    "type": "address"
                }
            ],
            "name": "allowance",
            "outputs": [
                {
                    "internalType": "uint256",
                    "name": "",
                    "type": "uint256"
                }
            ],
            "stateMutability": "view",
            "type": "function"
        },
        {
            "inputs": [
                {
                    "internalType": "address",
                    "name": "spender",
                    "type": "address"
                },
                {
                    "internalType": "uint256",
                    "name": "amount",
                    "type": "uint256"
                }
            ],
            "name": "approve",
            "outputs": [
                {
                    "internalType": "bool",
                    "name": "",
                    "type": "bool"
                }
            ],
            "stateMutability": "nonpayable",
            "type": "function"
        },
        {
            "inputs": [],
            "name": "asset_decimals",
            "outputs": [
                {
                    "internalType": "uint8",
                    "name": "",
                    "type": "uint8"
                }
            ],
            "stateMutability": "view",
            "type": "function"
        },
        {
            "inputs": [
                {
                    "internalType": "address",
                    "name": "account",
                    "type": "address"
                }
            ],
            "name": "balanceOf",
            "outputs": [
                {
                    "internalType": "uint256",
                    "name": "",
                    "type": "uint256"
                }
            ],
            "stateMutability": "view",
            "type": "function"
        },
        {
            "inputs": [],
            "name": "decimals",
            "outputs": [
                {
                    "internalType": "uint8",
                    "name": "",
                    "type": "uint8"
                }
            ],
            "stateMutability": "view",
            "type": "function"
        },
        {
            "inputs": [
                {
                    "internalType": "address",
                    "name": "spender",
                    "type": "address"
                },
                {
                    "internalType": "uint256",
                    "name": "subtractedValue",
                    "type": "uint256"
                }
            ],
            "name": "decreaseAllowance",
            "outputs": [
                {
                    "internalType": "bool",
                    "name": "",
                    "type": "bool"
                }
            ],
            "stateMutability": "nonpayable",
            "type": "function"
        },
        {
            "inputs": [
                {
                    "internalType": "address",
                    "name": "spender",
                    "type": "address"
                },
                {
                    "internalType": "uint256",
                    "name": "addedValue",
                    "type": "uint256"
                }
            ],
            "name": "increaseAllowance",
            "outputs": [
                {
                    "internalType": "bool",
                    "name": "",
                    "type": "bool"
                }
            ],
            "stateMutability": "nonpayable",
            "type": "function"
        },
        {
            "inputs": [
                {
                    "internalType": "address",
                    "name": "_to",
                    "type": "address"
                },
                {
                    "internalType": "uint256",
                    "name": "_value",
                    "type": "uint256"
                }
            ],
            "name": "mint",
            "outputs": [
                {
                    "internalType": "bool",
                    "name": "",
                    "type": "bool"
                }
            ],
            "stateMutability": "nonpayable",
            "type": "function"
        },
        {
            "inputs": [],
            "name": "name",
            "outputs": [
                {
                    "internalType": "string",
                    "name": "",
                    "type": "string"
                }
            ],
            "stateMutability": "view",
            "type": "function"
        },
        {
            "inputs": [
                {
                    "internalType": "address",
                    "name": "",
                    "type": "address"
                }
            ],
            "name": "nonces",
            "outputs": [
                {
                    "internalType": "uint256",
                    "name": "",
                    "type": "uint256"
                }
            ],
            "stateMutability": "view",
            "type": "function"
        },
        {
            "inputs": [
                {
                    "internalType": "address",
                    "name": "holder",
                    "type": "address"
                },
                {
                    "internalType": "address",
                    "name": "spender",
                    "type": "address"
                },
                {
                    "internalType": "uint256",
                    "name": "nonce",
                    "type": "uint256"
                },
                {
                    "internalType": "uint256",
                    "name": "expiry",
                    "type": "uint256"
                },
                {
                    "internalType": "bool",
                    "name": "allowed",
                    "type": "bool"
                },
                {
                    "internalType": "uint8",
                    "name": "v",
                    "type": "uint8"
                },
                {
                    "internalType": "bytes32",
                    "name": "r",
                    "type": "bytes32"
                },
                {
                    "internalType": "bytes32",
                    "name": "s",
                    "type": "bytes32"
                }
            ],
            "name": "permit",
            "outputs": [],
            "stateMutability": "nonpayable",
            "type": "function"
        },
        {
            "inputs": [
                {
                    "internalType": "address",
                    "name": "owner",
                    "type": "address"
                },
                {
                    "internalType": "address",
                    "name": "spender",
                    "type": "address"
                },
                {
                    "internalType": "uint256",
                    "name": "value",
                    "type": "uint256"
                },
                {
                    "internalType": "uint256",
                    "name": "deadline",
                    "type": "uint256"
                },
                {
                    "internalType": "uint8",
                    "name": "v",
                    "type": "uint8"
                },
                {
                    "internalType": "bytes32",
                    "name": "r",
                    "type": "bytes32"
                },
                {
                    "internalType": "bytes32",
                    "name": "s",
                    "type": "bytes32"
                }
            ],
            "name": "permit",
            "outputs": [],
            "stateMutability": "nonpayable",
            "type": "function"
        },
        {
            "inputs": [
                {
                    "internalType": "uint8",
                    "name": "_decimals",
                    "type": "uint8"
                }
            ],
            "name": "setDecimals",
            "outputs": [],
            "stateMutability": "nonpayable",
            "type": "function"
        },
        {
            "inputs": [],
            "name": "symbol",
            "outputs": [
                {
                    "internalType": "string",
                    "name": "",
                    "type": "string"
                }
            ],
            "stateMutability": "view",
            "type": "function"
        },
        {
            "inputs": [],
            "name": "totalSupply",
            "outputs": [
                {
                    "internalType": "uint256",
                    "name": "",
                    "type": "uint256"
                }
            ],
            "stateMutability": "view",
            "type": "function"
        },
        {
            "inputs": [
                {
                    "internalType": "address",
                    "name": "recipient",
                    "type": "address"
                },
                {
                    "internalType": "uint256",
                    "name": "amount",
                    "type": "uint256"
                }
            ],
            "name": "transfer",
            "outputs": [
                {
                    "internalType": "bool",
                    "name": "",
                    "type": "bool"
                }
            ],
            "stateMutability": "nonpayable",
            "type": "function"
        },
        {
            "inputs": [
                {
                    "internalType": "address",
                    "name": "sender",
                    "type": "address"
                },
                {
                    "internalType": "address",
                    "name": "recipient",
                    "type": "address"
                },
                {
                    "internalType": "uint256",
                    "name": "amount",
                    "type": "uint256"
                }
            ],
            "name": "transferFrom",
            "outputs": [
                {
                    "internalType": "bool",
                    "name": "",
                    "type": "bool"
                }
            ],
            "stateMutability": "nonpayable",
            "type": "function"
        }
    ],
    "bytecode": "0x60806040526005805460ff191660121790553480156200001e57600080fd5b506040516200148e3803806200148e833981016040819052620000419162000283565b80808181600390805190602001906200005c929190620001c7565b50805162000072906004906020840190620001c7565b504692507f8b73c3c69bb8fe3d512ecc4cf759cc79239f7b179b0ffacaa9a75d522b39400f9150620000a590506200012d565b805160209182012060408051808201825260018152603160f81b90840152805192830193909352918101919091527fc89efdaa54c0f20c7adf612882df0950f5a951637e0307cdcb4c672f298b8bc66060820152608081018290523060a082015260c0016040516020818303038152906040528051906020012060068190555050506200039c565b6060600380546200013e906200035f565b80601f01602080910402602001604051908101604052809291908181526020018280546200016c906200035f565b8015620001bd5780601f106200019157610100808354040283529160200191620001bd565b820191906000526020600020905b8154815290600101906020018083116200019f57829003601f168201915b5050505050905090565b828054620001d5906200035f565b90600052602060002090601f016020900481019282620001f9576000855562000244565b82601f106200021457805160ff191683800117855562000244565b8280016001018555821562000244579182015b828111156200024457825182559160200191906001019062000227565b506200025292915062000256565b5090565b5b8082111562000252576000815560010162000257565b634e487b7160e01b600052604160045260246000fd5b600060208083850312156200029757600080fd5b82516001600160401b0380821115620002af57600080fd5b818501915085601f830112620002c457600080fd5b815181811115620002d957620002d96200026d565b604051601f8201601f19908116603f011681019083821181831017156200030457620003046200026d565b8160405282815288868487010111156200031d57600080fd5b600093505b8284101562000341578484018601518185018701529285019262000322565b82841115620003535760008684830101525b98975050505050505050565b600181811c908216806200037457607f821691505b602082108114156200039657634e487b7160e01b600052602260045260246000fd5b50919050565b6110e280620003ac6000396000f3fe608060405234801561001057600080fd5b506004361061012c5760003560e01c806370a08231116100ad578063a457c2d711610071578063a457c2d7146102bb578063a9059cbb146102ce578063d505accf146102e1578063d6f16b99146102f4578063dd62ed3e1461030157600080fd5b806370a08231146102315780637a1395aa1461025a5780637ecebe00146102805780638fcbaf0c146102a057806395d89b41146102b357600080fd5b806330adf81f116100f457806330adf81f146101c2578063313ce567146101e95780633644e51514610202578063395093511461020b57806340c10f191461021e57600080fd5b806306fdde0314610131578063095ea7b31461014f5780630f96c5f41461017257806318160ddd146101a757806323b872dd146101af575b600080fd5b61013961033a565b6040516101469190610de4565b60405180910390f35b61016261015d366004610e55565b6103cc565b6040519015158152602001610146565b6101997fea2aa0a1be11a07ed86d755c93467f4f82362b452371d1ba94d1715123511acb81565b604051908152602001610146565b600254610199565b6101626101bd366004610e7f565b6103e2565b6101997f6e71edae12b1b97f4d1f60370fef10105fa2faae0126114a169c64845d6126c981565b60055460ff165b60405160ff9091168152602001610146565b61019960065481565b610162610219366004610e55565b610491565b61016261022c366004610e55565b6104cd565b61019961023f366004610ebb565b6001600160a01b031660009081526020819052604090205490565b61027e610268366004610eee565b6005805460ff191660ff92909216919091179055565b005b61019961028e366004610ebb565b60076020526000908152604090205481565b61027e6102ae366004610f09565b6104d9565b610139610760565b6101626102c9366004610e55565b61076f565b6101626102dc366004610e55565b610808565b61027e6102ef366004610f8b565b610815565b6005546101f09060ff1681565b61019961030f366004610ff5565b6001600160a01b03918216600090815260016020908152604080832093909416825291909152205490565b60606003805461034990611028565b80601f016020809104026020016040519081016040528092919081815260200182805461037590611028565b80156103c25780601f10610397576101008083540402835291602001916103c2565b820191906000526020600020905b8154815290600101906020018083116103a557829003601f168201915b5050505050905090565b60006103d9338484610a12565b50600192915050565b60006103ef848484610b36565b6001600160a01b0384166000908152600160209081526040808320338452909152902054828110156104795760405162461bcd60e51b815260206004820152602860248201527f45524332303a207472616e7366657220616d6f756e74206578636565647320616044820152676c6c6f77616e636560c01b60648201526084015b60405180910390fd5b6104868533858403610a12565b506001949350505050565b3360008181526001602090815260408083206001600160a01b038716845290915281205490916103d99185906104c8908690611079565b610a12565b60006103d98383610d05565b600654604080517fea2aa0a1be11a07ed86d755c93467f4f82362b452371d1ba94d1715123511acb60208201526001600160a01b03808c169282019290925290891660608201526080810188905260a0810187905285151560c08201526000919060e0016040516020818303038152906040528051906020012060405160200161057a92919061190160f01b81526002810192909252602282015260420190565b60408051601f19818403018152919052805160209091012090506001600160a01b0389166105db5760405162461bcd60e51b815260206004820152600e60248201526d24a72b20a624a22fa427a62222a960911b6044820152606401610470565b60408051600081526020810180835283905260ff861691810191909152606081018490526080810183905260019060a0016020604051602081039080840390855afa15801561062e573d6000803e3d6000fd5b505050602060405103516001600160a01b0316896001600160a01b03161461068c5760405162461bcd60e51b8152602060048201526011602482015270494e56414c49445f5349474e415455524560781b6044820152606401610470565b8515806106995750428610155b6106cf5760405162461bcd60e51b81526020600482015260076024820152661156141254915160ca1b6044820152606401610470565b6001600160a01b03891660009081526007602052604081208054916106f383611091565b9190505587146107355760405162461bcd60e51b815260206004820152600d60248201526c494e56414c49445f4e4f4e434560981b6044820152606401610470565b600085610743576000610747565b6000195b90506107548a8a83610a12565b50505050505050505050565b60606004805461034990611028565b3360009081526001602090815260408083206001600160a01b0386168452909152812054828110156107f15760405162461bcd60e51b815260206004820152602560248201527f45524332303a2064656372656173656420616c6c6f77616e63652062656c6f77604482015264207a65726f60d81b6064820152608401610470565b6107fe3385858403610a12565b5060019392505050565b60006103d9338484610b36565b4284101561084f5760405162461bcd60e51b81526020600482015260076024820152661156141254915160ca1b6044820152606401610470565b6006546001600160a01b038816600090815260076020526040812080549192917f6e71edae12b1b97f4d1f60370fef10105fa2faae0126114a169c64845d6126c9918b918b918b9190876108a283611091565b909155506040805160208101969096526001600160a01b0394851690860152929091166060840152608083015260a082015260c0810187905260e0016040516020818303038152906040528051906020012060405160200161091b92919061190160f01b81526002810192909252602282015260420190565b60408051601f198184030181528282528051602091820120600080855291840180845281905260ff88169284019290925260608301869052608083018590529092509060019060a0016020604051602081039080840390855afa158015610986573d6000803e3d6000fd5b5050604051601f1901519150506001600160a01b038116158015906109bc5750886001600160a01b0316816001600160a01b0316145b6109fc5760405162461bcd60e51b8152602060048201526011602482015270494e56414c49445f5349474e415455524560781b6044820152606401610470565b610a07898989610a12565b505050505050505050565b6001600160a01b038316610a745760405162461bcd60e51b8152602060048201526024808201527f45524332303a20617070726f76652066726f6d20746865207a65726f206164646044820152637265737360e01b6064820152608401610470565b6001600160a01b038216610ad55760405162461bcd60e51b815260206004820152602260248201527f45524332303a20617070726f766520746f20746865207a65726f206164647265604482015261737360f01b6064820152608401610470565b6001600160a01b0383811660008181526001602090815260408083209487168084529482529182902085905590518481527f8c5be1e5ebec7d5bd14f71427d1e84f3dd0314c0f7b2291e5b200ac8c7c3b925910160405180910390a3505050565b6001600160a01b038316610b9a5760405162461bcd60e51b815260206004820152602560248201527f45524332303a207472616e736665722066726f6d20746865207a65726f206164604482015264647265737360d81b6064820152608401610470565b6001600160a01b038216610bfc5760405162461bcd60e51b815260206004820152602360248201527f45524332303a207472616e7366657220746f20746865207a65726f206164647260448201526265737360e81b6064820152608401610470565b6001600160a01b03831660009081526020819052604090205481811015610c745760405162461bcd60e51b815260206004820152602660248201527f45524332303a207472616e7366657220616d6f756e7420657863656564732062604482015265616c616e636560d01b6064820152608401610470565b6001600160a01b03808516600090815260208190526040808220858503905591851681529081208054849290610cab908490611079565b92505081905550826001600160a01b0316846001600160a01b03167fddf252ad1be2c89b69c2b068fc378daa952ba7f163c4a11628f55a4df523b3ef84604051610cf791815260200190565b60405180910390a350505050565b6001600160a01b038216610d5b5760405162461bcd60e51b815260206004820152601f60248201527f45524332303a206d696e7420746f20746865207a65726f2061646472657373006044820152606401610470565b8060026000828254610d6d9190611079565b90915550506001600160a01b03821660009081526020819052604081208054839290610d9a908490611079565b90915550506040518181526001600160a01b038316906000907fddf252ad1be2c89b69c2b068fc378daa952ba7f163c4a11628f55a4df523b3ef9060200160405180910390a35050565b600060208083528351808285015260005b81811015610e1157858101830151858201604001528201610df5565b81811115610e23576000604083870101525b50601f01601f1916929092016040019392505050565b80356001600160a01b0381168114610e5057600080fd5b919050565b60008060408385031215610e6857600080fd5b610e7183610e39565b946020939093013593505050565b600080600060608486031215610e9457600080fd5b610e9d84610e39565b9250610eab60208501610e39565b9150604084013590509250925092565b600060208284031215610ecd57600080fd5b610ed682610e39565b9392505050565b803560ff81168114610e5057600080fd5b600060208284031215610f0057600080fd5b610ed682610edd565b600080600080600080600080610100898b031215610f2657600080fd5b610f2f89610e39565b9750610f3d60208a01610e39565b9650604089013595506060890135945060808901358015158114610f6057600080fd5b9350610f6e60a08a01610edd565b925060c0890135915060e089013590509295985092959890939650565b600080600080600080600060e0888a031215610fa657600080fd5b610faf88610e39565b9650610fbd60208901610e39565b95506040880135945060608801359350610fd960808901610edd565b925060a0880135915060c0880135905092959891949750929550565b6000806040838503121561100857600080fd5b61101183610e39565b915061101f60208401610e39565b90509250929050565b600181811c9082168061103c57607f821691505b6020821081141561105d57634e487b7160e01b600052602260045260246000fd5b50919050565b634e487b7160e01b600052601160045260246000fd5b6000821982111561108c5761108c611063565b500190565b60006000198214156110a5576110a5611063565b506001019056fea2646970667358221220ab65dda4b7cddfaa21eb2c1dfacd1ed6daec2c0cd931cdbf3de1f25b8898ef1664736f6c634300080a0033",
    "linkReferences": {},
    "deployedLinkReferences": {}
}