{
    "_format": "hh-sol-artifact-1",
    "contractName": "HashInputs",
    "sourceName": "contracts/test/HashInputs.sol",
    "abi": [
        {
            "inputs": [
                {
                    "internalType": "address",
                    "name": "_verifierAddress",
                    "type": "address"
                }
            ],
            "stateMutability": "nonpayable",
            "type": "constructor"
        },
        {
            "inputs": [],
            "name": "ENCODING_BYTE_INVALID",
            "type": "error"
        },
        {
            "inputs": [],
            "name": "INVALID_ROLLUP_TOPOLOGY",
            "type": "error"
        },
        {
            "inputs": [
                {
                    "internalType": "uint256",
                    "name": "",
                    "type": "uint256"
                },
                {
                    "internalType": "uint256",
                    "name": "",
                    "type": "uint256"
                }
            ],
            "name": "PUBLIC_INPUTS_HASH_VERIFICATION_FAILED",
            "type": "error"
        },
        {
            "inputs": [
                {
                    "internalType": "bytes",
                    "name": "",
                    "type": "bytes"
                }
            ],
            "name": "computePublicInputHash",
            "outputs": [
                {
                    "internalType": "bytes32",
                    "name": "",
                    "type": "bytes32"
                }
            ],
            "stateMutability": "view",
            "type": "function"
        },
        {
            "inputs": [],
            "name": "verifier",
            "outputs": [
                {
                    "internalType": "contract IVerifier",
                    "name": "",
                    "type": "address"
                }
            ],
            "stateMutability": "view",
            "type": "function"
        },
        {
            "inputs": [
                {
                    "internalType": "bytes",
                    "name": "",
                    "type": "bytes"
                }
            ],
            "name": "verifyProofTest",
            "outputs": [],
            "stateMutability": "view",
            "type": "function"
        }
    ],
    "bytecode": "0x608060405234801561001057600080fd5b506040516106ef3803806106ef83398101604081905261002f91610054565b600080546001600160a01b0319166001600160a01b0392909216919091179055610084565b60006020828403121561006657600080fd5b81516001600160a01b038116811461007d57600080fd5b9392505050565b61065c806100936000396000f3fe608060405234801561001057600080fd5b50600436106100415760003560e01c80631455ec32146100465780632b7ac3f31461006c578063356ffa8714610097575b600080fd5b610059610054366004610578565b6100ac565b6040519081526020015b60405180910390f35b60005461007f906001600160a01b031681565b6040516001600160a01b039091168152602001610063565b6100aa6100a5366004610578565b6100c2565b005b60006100b6610166565b50600095945050505050565b60006100cc610166565b9250505060006111c060086100e191906105ea565b6040516111cc600480359182013563ffffffff169093019350600092810135849003919084016024019060ac815360316001820153608c6002820153605d6003820153604060048201528560248201528260448201528282606483013760008060648501836000545afa93505050508061015f573d6000803e3d6000fd5b5050505050565b6040805161010080820183526104ea82526104fe6020808401829052838501919091526105296060840181905261053e608085015260a0840181905260c084015261055360e084015283516111c46004359081013560448201359081046111c883013563ffffffff908116828104808402821415019092029096028481016111e0019098526111c08881018086529498919760009795968a019560248601958994859461056e949391926111cc013590911690888a376111c098909801976111a9888101988a97509091010193505b8684111561026b5760078735168089528060051b83015193505061025d87898563ffffffff16565b965061010088019750610235565b505050506111c088810151604051600092828604808c048082028d1415019384900393909261010084029260043560240182376111c08101905060208202810191505b818110156102fd5760206000848960025afa6102c957600080fd5b6000517f30644e72e131a029b85045b68181585d2833e84879b9709143e1f593f000000190068152958201956020016102ae565b841561047a576000925083602081146103495760108114610371576040811461039957600181146103c157600281146103e957600481146104115760088114610439576001965061045d565b7f0df0e06ab8a02ce2ff08babd7144ab23ca2e99ddf318080cf88602eeb8913d44935061045d565b7f1c52c159b4dae66c3dcf33b44d4d61ead6bc4d260f882ac6ba34dccf78892ca4935061045d565b7f1f83672815ac9b3ca31732d641784035834e96b269eaf6a2e759bf4fcc8e5bfd935061045d565b7f22dd983f8337d97d56071f7986209ab2ee6039a422242e89126701c6ee005af0935061045d565b7f076a27c79e5ace2a3d47f9dd2e83e4ff6ea8872b3c2218f66c92b89b55f36560935061045d565b7f2f0c70a5bf5460465e9902f9c96be324e8064e762a5de52589fdb97cbce3c6ee935061045d565b7f240ed0de145447ff0ceff2aa477f43e0e2ed7f3543ee3d8832f158ec76b183a993505b5060208502820191505b8181101561047a57828152602001610467565b6040519450602060008683038760025afa61049457600080fd5b50505050507f30644e72e131a029b85045b68181585d2833e84879b9709143e1f593f000000160005106965080156104df5760405163192cf60f60e11b815260040160405180910390fd5b505050505050909192565b60006104f78360016105ea565b9392505050565b600060a0602084016020840137601460c0840160cc840137600460d4840160fc840137505060b90190565b60006080602084016020840137505060810190565b60006060602084016020840137505060610190565b600060405163d0426f7b60e01b815260040160405180910390fd5b610576610610565b565b6000806020838503121561058b57600080fd5b823567ffffffffffffffff808211156105a357600080fd5b818501915085601f8301126105b757600080fd5b8135818111156105c657600080fd5b8660208285010111156105d857600080fd5b60209290920196919550909350505050565b6000821982111561060b57634e487b7160e01b600052601160045260246000fd5b500190565b634e487b7160e01b600052605160045260246000fdfea26469706673582212205026c0ca6e789d0a17ce298b40f2cad69301fd8ec8ca9880d3b19f181b35b97764736f6c634300080a0033",
    "linkReferences": {},
    "deployedLinkReferences": {}
}