{
    "_format": "hh-sol-artifact-1",
    "contractName": "UniswapBridge",
    "sourceName": "contracts/bridges/UniswapBridge.sol",
    "abi": [
        {
            "inputs": [
                {
                    "internalType": "address",
                    "name": "_rollupProcessor",
                    "type": "address"
                },
                {
                    "internalType": "address",
                    "name": "_router",
                    "type": "address"
                }
            ],
            "stateMutability": "nonpayable",
            "type": "constructor"
        },
        {
            "inputs": [
                {
                    "internalType": "uint256",
                    "name": "",
                    "type": "uint256"
                }
            ],
            "name": "canFinalise",
            "outputs": [
                {
                    "internalType": "bool",
                    "name": "",
                    "type": "bool"
                }
            ],
            "stateMutability": "pure",
            "type": "function"
        },
        {
            "inputs": [
                {
                    "components": [
                        {
                            "internalType": "uint256",
                            "name": "id",
                            "type": "uint256"
                        },
                        {
                            "internalType": "address",
                            "name": "erc20Address",
                            "type": "address"
                        },
                        {
                            "internalType": "enum AztecTypes.AztecAssetType",
                            "name": "assetType",
                            "type": "uint8"
                        }
                    ],
                    "internalType": "struct AztecTypes.AztecAsset",
                    "name": "inputAssetA",
                    "type": "tuple"
                },
                {
                    "components": [
                        {
                            "internalType": "uint256",
                            "name": "id",
                            "type": "uint256"
                        },
                        {
                            "internalType": "address",
                            "name": "erc20Address",
                            "type": "address"
                        },
                        {
                            "internalType": "enum AztecTypes.AztecAssetType",
                            "name": "assetType",
                            "type": "uint8"
                        }
                    ],
                    "internalType": "struct AztecTypes.AztecAsset",
                    "name": "inputAssetB",
                    "type": "tuple"
                },
                {
                    "components": [
                        {
                            "internalType": "uint256",
                            "name": "id",
                            "type": "uint256"
                        },
                        {
                            "internalType": "address",
                            "name": "erc20Address",
                            "type": "address"
                        },
                        {
                            "internalType": "enum AztecTypes.AztecAssetType",
                            "name": "assetType",
                            "type": "uint8"
                        }
                    ],
                    "internalType": "struct AztecTypes.AztecAsset",
                    "name": "outputAssetA",
                    "type": "tuple"
                },
                {
                    "components": [
                        {
                            "internalType": "uint256",
                            "name": "id",
                            "type": "uint256"
                        },
                        {
                            "internalType": "address",
                            "name": "erc20Address",
                            "type": "address"
                        },
                        {
                            "internalType": "enum AztecTypes.AztecAssetType",
                            "name": "assetType",
                            "type": "uint8"
                        }
                    ],
                    "internalType": "struct AztecTypes.AztecAsset",
                    "name": "outputAssetB",
                    "type": "tuple"
                },
                {
                    "internalType": "uint256",
                    "name": "totalInputValue",
                    "type": "uint256"
                },
                {
                    "internalType": "uint256",
                    "name": "interactionNonce",
                    "type": "uint256"
                },
                {
                    "internalType": "uint64",
                    "name": "",
                    "type": "uint64"
                },
                {
                    "internalType": "address",
                    "name": "",
                    "type": "address"
                }
            ],
            "name": "convert",
            "outputs": [
                {
                    "internalType": "uint256",
                    "name": "outputValueA",
                    "type": "uint256"
                },
                {
                    "internalType": "uint256",
                    "name": "outputValueB",
                    "type": "uint256"
                },
                {
                    "internalType": "bool",
                    "name": "isAsync",
                    "type": "bool"
                }
            ],
            "stateMutability": "payable",
            "type": "function"
        },
        {
            "inputs": [
                {
                    "components": [
                        {
                            "internalType": "uint256",
                            "name": "id",
                            "type": "uint256"
                        },
                        {
                            "internalType": "address",
                            "name": "erc20Address",
                            "type": "address"
                        },
                        {
                            "internalType": "enum AztecTypes.AztecAssetType",
                            "name": "assetType",
                            "type": "uint8"
                        }
                    ],
                    "internalType": "struct AztecTypes.AztecAsset",
                    "name": "",
                    "type": "tuple"
                },
                {
                    "components": [
                        {
                            "internalType": "uint256",
                            "name": "id",
                            "type": "uint256"
                        },
                        {
                            "internalType": "address",
                            "name": "erc20Address",
                            "type": "address"
                        },
                        {
                            "internalType": "enum AztecTypes.AztecAssetType",
                            "name": "assetType",
                            "type": "uint8"
                        }
                    ],
                    "internalType": "struct AztecTypes.AztecAsset",
                    "name": "",
                    "type": "tuple"
                },
                {
                    "components": [
                        {
                            "internalType": "uint256",
                            "name": "id",
                            "type": "uint256"
                        },
                        {
                            "internalType": "address",
                            "name": "erc20Address",
                            "type": "address"
                        },
                        {
                            "internalType": "enum AztecTypes.AztecAssetType",
                            "name": "assetType",
                            "type": "uint8"
                        }
                    ],
                    "internalType": "struct AztecTypes.AztecAsset",
                    "name": "",
                    "type": "tuple"
                },
                {
                    "components": [
                        {
                            "internalType": "uint256",
                            "name": "id",
                            "type": "uint256"
                        },
                        {
                            "internalType": "address",
                            "name": "erc20Address",
                            "type": "address"
                        },
                        {
                            "internalType": "enum AztecTypes.AztecAssetType",
                            "name": "assetType",
                            "type": "uint8"
                        }
                    ],
                    "internalType": "struct AztecTypes.AztecAsset",
                    "name": "",
                    "type": "tuple"
                },
                {
                    "internalType": "uint256",
                    "name": "",
                    "type": "uint256"
                },
                {
                    "internalType": "uint64",
                    "name": "",
                    "type": "uint64"
                }
            ],
            "name": "finalise",
            "outputs": [
                {
                    "internalType": "uint256",
                    "name": "",
                    "type": "uint256"
                },
                {
                    "internalType": "uint256",
                    "name": "",
                    "type": "uint256"
                },
                {
                    "internalType": "bool",
                    "name": "",
                    "type": "bool"
                }
            ],
            "stateMutability": "payable",
            "type": "function"
        },
        {
            "inputs": [],
            "name": "rollupProcessor",
            "outputs": [
                {
                    "internalType": "address",
                    "name": "",
                    "type": "address"
                }
            ],
            "stateMutability": "view",
            "type": "function"
        },
        {
            "inputs": [],
            "name": "weth",
            "outputs": [
                {
                    "internalType": "address",
                    "name": "",
                    "type": "address"
                }
            ],
            "stateMutability": "view",
            "type": "function"
        },
        {
            "stateMutability": "payable",
            "type": "receive"
        }
    ],
    "bytecode": "0x60a06040523480156200001157600080fd5b50604051620011bb380380620011bb833981016040819052620000349162000100565b6001600160a01b03828116608052600180546001600160a01b0319169183169182179055604080516315ab88c960e31b8152905163ad5c4648916004808201926020929091908290030181865afa15801562000094573d6000803e3d6000fd5b505050506040513d601f19601f82011682018060405250810190620000ba919062000138565b600080546001600160a01b0319166001600160a01b0392909216919091179055506200015d9050565b80516001600160a01b0381168114620000fb57600080fd5b919050565b600080604083850312156200011457600080fd5b6200011f83620000e3565b91506200012f60208401620000e3565b90509250929050565b6000602082840312156200014b57600080fd5b6200015682620000e3565b9392505050565b6080516110206200019b6000396000818160a10152818161014e0152818161049a0152818161078301528181610aa00152610b4501526110206000f3fe60806040526004361061004e5760003560e01c806326c3b5151461005a5780632a113d6e1461008f5780633fc8cef3146100db5780637224f4eb146100fb5780639b07d3421461012c57600080fd5b3661005557005b600080fd5b61006d610068366004610cdf565b61013f565b6040805193845260208401929092521515908201526060015b60405180910390f35b34801561009b57600080fd5b506100c37f000000000000000000000000000000000000000000000000000000000000000081565b6040516001600160a01b039091168152602001610086565b3480156100e757600080fd5b506000546100c3906001600160a01b031681565b34801561010757600080fd5b5061011c610116366004610d71565b50600090565b6040519015158152602001610086565b61006d61013a366004610d8a565b610bec565b60008080336001600160a01b037f000000000000000000000000000000000000000000000000000000000000000016146101c05760405162461bcd60e51b815260206004820152601d60248201527f556e69737761704272696467653a20494e56414c49445f43414c4c455200000060448201526064015b60405180910390fd5b60008a6040015160038111156101d8576101d8610dff565b146102415760405162461bcd60e51b815260206004820152603360248201527f556e69737761704272696467653a2045585045435445445f5345434f4e445f496044820152721394155517d054d4d15517d393d517d554d151606a1b60648201526084016101b7565b60008860400151600381111561025957610259610dff565b146102c35760405162461bcd60e51b815260206004820152603460248201527f556e69737761704272696467653a2045585045435445445f5345434f4e445f4f604482015273155514155517d054d4d15517d393d517d554d15160621b60648201526084016101b7565b50600090508060604260018d6040015160038111156102e4576102e4610dff565b14156105355760018b60400151600381111561030257610302610dff565b14156103625760405162461bcd60e51b815260206004820152602960248201527f556e69737761704272696467653a20494e5055545f414e445f4f55545055545f604482015268424f54485f4554482160b81b60648201526084016101b7565b60408051600280825260608201835260009260208301908036833750506000805483519394506001600160a01b0316928492506103a1576103a1610e15565b60200260200101906001600160a01b031690816001600160a01b0316815250508b60200151816001815181106103d9576103d9610e15565b6001600160a01b039283166020918202929092010152600154604051637ff36ab560e01b8152911690637ff36ab5908c9061041f90600090869030908990600401610e6f565b60006040518083038185885af115801561043d573d6000803e3d6000fd5b50505050506040513d6000823e601f3d908101601f191682016040526104669190810190610ea4565b92508260018151811061047b5761047b610e15565b602002602001015195508b602001516001600160a01b031663095ea7b37f0000000000000000000000000000000000000000000000000000000000000000886040518363ffffffff1660e01b81526004016104eb9291906001600160a01b03929092168252602082015260400190565b6020604051808303816000875af115801561050a573d6000803e3d6000fd5b505050506040513d601f19601f8201168201806040525081019061052e9190610f4a565b5050610bdc565b60018b60400151600381111561054d5761054d610dff565b14156107ff576040805160028082526060820183526000926020830190803683370190505090508d602001518160008151811061058c5761058c610e15565b6001600160a01b0392831660209182029290920101526000548251911690829060019081106105bd576105bd610e15565b6001600160a01b039283166020918202929092018101919091528f015160015460405163095ea7b360e01b81529083166004820152602481018d905291169063095ea7b3906044016020604051808303816000875af1158015610624573d6000803e3d6000fd5b505050506040513d601f19601f820116820180604052508101906106489190610f4a565b6106945760405162461bcd60e51b815260206004820152601d60248201527f556e69737761704272696467653a20415050524f56455f4641494c454400000060448201526064016101b7565b6001546040516318cbafe560e01b81526001600160a01b03909116906318cbafe5906106cd908d90600090869030908990600401610f73565b6000604051808303816000875af11580156106ec573d6000803e3d6000fd5b505050506040513d6000823e601f3d908101601f191682016040526107149190810190610ea4565b92508260018151811061072957610729610e15565b6020026020010151955060008960405160240161074891815260200190565b60408051601f198184030181529181526020820180516001600160e01b03166312a5362360e01b179052519091506000906001600160a01b037f0000000000000000000000000000000000000000000000000000000000000000169089906107b1908590610faf565b60006040518083038185875af1925050503d80600081146107ee576040519150601f19603f3d011682016040523d82523d6000602084013e6107f3565b606091505b50509050505050610bdc565b60028d60400151600381111561081757610817610dff565b1461087a5760405162461bcd60e51b815260206004820152602d60248201527f556e69737761704272696467653a20494e5055545f41535345545f415f4e4f5460448201526c05f4554485f4f525f455243323609c1b60648201526084016101b7565b60028b60400151600381111561089257610892610dff565b146108f65760405162461bcd60e51b815260206004820152602e60248201527f556e69737761704272696467653a204f55545055545f41535345545f415f4e4f60448201526d0545f4554485f4f525f45524332360941b60648201526084016101b7565b60408051600380825260808201909252600091602082016060803683370190505090508d602001518160008151811061093157610931610e15565b6001600160a01b03928316602091820292909201015260005482519116908290600190811061096257610962610e15565b60200260200101906001600160a01b031690816001600160a01b0316815250508b602001518160028151811061099a5761099a610e15565b6001600160a01b039283166020918202929092018101919091528f015160015460405163095ea7b360e01b81529083166004820152602481018d905291169063095ea7b3906044016020604051808303816000875af1158015610a01573d6000803e3d6000fd5b505050506040513d601f19601f82011682018060405250810190610a259190610f4a565b610a715760405162461bcd60e51b815260206004820152601d60248201527f556e69737761704272696467653a20415050524f56455f4641494c454400000060448201526064016101b7565b6001546040516338ed173960e01b81526001600160a01b03909116906338ed173990610aca908d9060009086907f0000000000000000000000000000000000000000000000000000000000000000908990600401610f73565b6000604051808303816000875af1158015610ae9573d6000803e3d6000fd5b505050506040513d6000823e601f3d908101601f19168201604052610b119190810190610ea4565b925082600281518110610b2657610b26610e15565b602002602001015195508b602001516001600160a01b031663095ea7b37f0000000000000000000000000000000000000000000000000000000000000000886040518363ffffffff1660e01b8152600401610b969291906001600160a01b03929092168252602082015260400190565b6020604051808303816000875af1158015610bb5573d6000803e3d6000fd5b505050506040513d601f19601f82011682018060405250810190610bd99190610f4a565b50505b5050985098509895505050505050565b60008080600080fd5b634e487b7160e01b600052604160045260246000fd5b604051601f8201601f1916810167ffffffffffffffff81118282101715610c3457610c34610bf5565b604052919050565b80356001600160a01b0381168114610c5357600080fd5b919050565b600060608284031215610c6a57600080fd5b6040516060810181811067ffffffffffffffff82111715610c8d57610c8d610bf5565b60405282358152905080610ca360208401610c3c565b6020820152604083013560048110610cba57600080fd5b6040919091015292915050565b803567ffffffffffffffff81168114610c5357600080fd5b600080600080600080600080610200898b031215610cfc57600080fd5b610d068a8a610c58565b9750610d158a60608b01610c58565b9650610d248a60c08b01610c58565b9550610d348a6101208b01610c58565b945061018089013593506101a08901359250610d536101c08a01610cc7565b9150610d626101e08a01610c3c565b90509295985092959890939650565b600060208284031215610d8357600080fd5b5035919050565b6000806000806000806101c08789031215610da457600080fd5b610dae8888610c58565b9550610dbd8860608901610c58565b9450610dcc8860c08901610c58565b9350610ddc886101208901610c58565b92506101808701359150610df36101a08801610cc7565b90509295509295509295565b634e487b7160e01b600052602160045260246000fd5b634e487b7160e01b600052603260045260246000fd5b600081518084526020808501945080840160005b83811015610e645781516001600160a01b031687529582019590820190600101610e3f565b509495945050505050565b848152608060208201526000610e886080830186610e2b565b6001600160a01b03949094166040830152506060015292915050565b60006020808385031215610eb757600080fd5b825167ffffffffffffffff80821115610ecf57600080fd5b818501915085601f830112610ee357600080fd5b815181811115610ef557610ef5610bf5565b8060051b9150610f06848301610c0b565b8181529183018401918481019088841115610f2057600080fd5b938501935b83851015610f3e57845182529385019390850190610f25565b98975050505050505050565b600060208284031215610f5c57600080fd5b81518015158114610f6c57600080fd5b9392505050565b85815284602082015260a060408201526000610f9260a0830186610e2b565b6001600160a01b0394909416606083015250608001529392505050565b6000825160005b81811015610fd05760208186018101518583015201610fb6565b81811115610fdf576000828501525b50919091019291505056fea2646970667358221220fb8a9a3cc08089cc04630e4e98d74c5eaa5895944ce8be0043be60f0bad5bde264736f6c634300080a0033",
    "linkReferences": {},
    "deployedLinkReferences": {}
}