{
    "_format": "hh-sol-artifact-1",
    "contractName": "VerificationKey1x1",
    "sourceName": "contracts/verifier/keys/VerificationKey1x1.sol",
    "abi": [
        {
            "inputs": [],
            "name": "get_verification_key",
            "outputs": [
                {
                    "components": [
                        {
                            "internalType": "uint256",
                            "name": "circuit_size",
                            "type": "uint256"
                        },
                        {
                            "internalType": "uint256",
                            "name": "num_inputs",
                            "type": "uint256"
                        },
                        {
                            "internalType": "uint256",
                            "name": "work_root",
                            "type": "uint256"
                        },
                        {
                            "internalType": "uint256",
                            "name": "domain_inverse",
                            "type": "uint256"
                        },
                        {
                            "internalType": "uint256",
                            "name": "work_root_inverse",
                            "type": "uint256"
                        },
                        {
                            "components": [
                                {
                                    "internalType": "uint256",
                                    "name": "x",
                                    "type": "uint256"
                                },
                                {
                                    "internalType": "uint256",
                                    "name": "y",
                                    "type": "uint256"
                                }
                            ],
                            "internalType": "struct StandardTypes.G1Point",
                            "name": "Q1",
                            "type": "tuple"
                        },
                        {
                            "components": [
                                {
                                    "internalType": "uint256",
                                    "name": "x",
                                    "type": "uint256"
                                },
                                {
                                    "internalType": "uint256",
                                    "name": "y",
                                    "type": "uint256"
                                }
                            ],
                            "internalType": "struct StandardTypes.G1Point",
                            "name": "Q2",
                            "type": "tuple"
                        },
                        {
                            "components": [
                                {
                                    "internalType": "uint256",
                                    "name": "x",
                                    "type": "uint256"
                                },
                                {
                                    "internalType": "uint256",
                                    "name": "y",
                                    "type": "uint256"
                                }
                            ],
                            "internalType": "struct StandardTypes.G1Point",
                            "name": "Q3",
                            "type": "tuple"
                        },
                        {
                            "components": [
                                {
                                    "internalType": "uint256",
                                    "name": "x",
                                    "type": "uint256"
                                },
                                {
                                    "internalType": "uint256",
                                    "name": "y",
                                    "type": "uint256"
                                }
                            ],
                            "internalType": "struct StandardTypes.G1Point",
                            "name": "QM",
                            "type": "tuple"
                        },
                        {
                            "components": [
                                {
                                    "internalType": "uint256",
                                    "name": "x",
                                    "type": "uint256"
                                },
                                {
                                    "internalType": "uint256",
                                    "name": "y",
                                    "type": "uint256"
                                }
                            ],
                            "internalType": "struct StandardTypes.G1Point",
                            "name": "QC",
                            "type": "tuple"
                        },
                        {
                            "components": [
                                {
                                    "internalType": "uint256",
                                    "name": "x",
                                    "type": "uint256"
                                },
                                {
                                    "internalType": "uint256",
                                    "name": "y",
                                    "type": "uint256"
                                }
                            ],
                            "internalType": "struct StandardTypes.G1Point",
                            "name": "SIGMA1",
                            "type": "tuple"
                        },
                        {
                            "components": [
                                {
                                    "internalType": "uint256",
                                    "name": "x",
                                    "type": "uint256"
                                },
                                {
                                    "internalType": "uint256",
                                    "name": "y",
                                    "type": "uint256"
                                }
                            ],
                            "internalType": "struct StandardTypes.G1Point",
                            "name": "SIGMA2",
                            "type": "tuple"
                        },
                        {
                            "components": [
                                {
                                    "internalType": "uint256",
                                    "name": "x",
                                    "type": "uint256"
                                },
                                {
                                    "internalType": "uint256",
                                    "name": "y",
                                    "type": "uint256"
                                }
                            ],
                            "internalType": "struct StandardTypes.G1Point",
                            "name": "SIGMA3",
                            "type": "tuple"
                        },
                        {
                            "internalType": "bool",
                            "name": "contains_recursive_proof",
                            "type": "bool"
                        },
                        {
                            "internalType": "uint256",
                            "name": "recursive_proof_indices",
                            "type": "uint256"
                        },
                        {
                            "components": [
                                {
                                    "internalType": "uint256",
                                    "name": "x0",
                                    "type": "uint256"
                                },
                                {
                                    "internalType": "uint256",
                                    "name": "x1",
                                    "type": "uint256"
                                },
                                {
                                    "internalType": "uint256",
                                    "name": "y0",
                                    "type": "uint256"
                                },
                                {
                                    "internalType": "uint256",
                                    "name": "y1",
                                    "type": "uint256"
                                }
                            ],
                            "internalType": "struct StandardTypes.G2Point",
                            "name": "g2_x",
                            "type": "tuple"
                        },
                        {
                            "internalType": "uint256",
                            "name": "zeta_pow_n",
                            "type": "uint256"
                        }
                    ],
                    "internalType": "struct StandardTypes.VerificationKey",
                    "name": "",
                    "type": "tuple"
                }
            ],
            "stateMutability": "pure",
            "type": "function"
        }
    ],
    "bytecode": "0x61076661003a600b82828239805160001a60731461002d57634e487b7160e01b600052600060045260246000fd5b30600052607381538281f3fe73000000000000000000000000000000000000000030146080604052600436106100355760003560e01c8063bd5794e21461003a575b600080fd5b610042610058565b60405161004f91906105c3565b60405180910390f35b61006061043c565b61006861043c565b628000006000820152601160208201527f0210fe635ab4c74d6b7bcf70bc23a1395680c64022dd991fb54d4506ab80c59d60408201527f30644e121894ba67550ff245e0f5eb5a25832df811e8df9dd100d30c2c14d82160608201527f2165a1a5bda6792b1dd75c9f4e2b8e61126a786ba1a6eadf811b03e7d69ca83b60808201527f0f7c715011823362f824b9de259a685032eedb928431724439a567967852d77360a0820151527f17ec42a324359512a7d093faa7e55103b1f017af1bfaa5e1ccd31cc9e4ff8df0602060a083015101527f057e377b2615b8dc4213f653ffaf4b40f452b9b2c430c5720fa9aa25e17207ab60c0820151527f2c8a1f43f6edae6efb1325f7dd6e84282a49c5b9fb167035121839f4c03c2d8e602060c083015101527f07c448ca9631b9d24fc45d555f1b1952134eaf083c3bd46a000fcf5434a9447860e0820151527f0e18227b6c1a461c1cbb59826cac7ebabe89e6490d80312be1504d0f7fb98059602060e083015101527f24a14b8c3bc0ee2a31a5a8bb1c69a1519a814de7c78cb5fe3248b1717893e7f8610100820151527f1abd8e73735327575cec64e8d3c20fe5ae58f23468478a9dc6aee652332ed569602061010083015101527f1531778c4bbda77a659dd68bf49102ceb1ab6fbd96fd5cc2f7f335e3c1ec2ce5610120820151527f166f3cd25cc14370885bf52637ff5dc382c8a6243f552cfb96a09a64f314631f602061012083015101527f289dcb3bb09ce8d1a5c6d08cdf87ba9fc0f22ea255cf644523a602e6d3ae348e610140820151527f2d21049d7f8b99c666d353e6f7101663ed09b4877f0a829d275bb83c223d1076602061014083015101527f0d4e31a8d510770f6912e7ee0f7454ecaf51b4df1c5f5865e0017023eab933c8610160820151527f0f974eb06e1bae83bf339bc7d15b5ea18d826aa4c877ca1b63317e2a8debe7d1602061016083015101527f2d1d6ae2a57defc6f3a789129f67f9c9969961b8642a92b91a9bdc0afb8b7f99610180820151527f300c3f15de1f550c772a7306a3a7e491b84ec7e7a9d4601c8b88107eff4f45ee6020610180830151015260016101a082015260016101c08201527f260e01b251f6f1c7e7ff4e580791dee8ea51d87a358e038b4efe30fac09383c16101e0820151527f0118c4d5b837bcc2bc89b5b398b5974e9f5944073b32078b7e231fec938883b060206101e083015101527f04fc6369f7110fe3d25156c1bb9a72859cf2a04641f99ba4ee413c80da6a5fe460406101e083015101527f22febda3c0c0632a56475b4214e5615e11e6dd3f96e6cea2854a87d4dacc5e5560606101e083015101528091505090565b6040518061022001604052806000815260200160008152602001600081526020016000815260200160008152602001610488604051806040016040528060008152602001600081525090565b81526020016104aa604051806040016040528060008152602001600081525090565b81526020016104cc604051806040016040528060008152602001600081525090565b81526020016104ee604051806040016040528060008152602001600081525090565b8152602001610510604051806040016040528060008152602001600081525090565b8152602001610532604051806040016040528060008152602001600081525090565b8152602001610554604051806040016040528060008152602001600081525090565b8152602001610576604051806040016040528060008152602001600081525090565b8152602001600015158152602001600081526020016105b66040518060800160405280600081526020016000815260200160008152602001600081525090565b8152602001600081525090565b600061038082019050825182526020830151602083015260408301516040830152606083015160608301526080830151608083015260a083015161061460a084018280518252602090810151910152565b5060c0830151805160e084015260208101516101008401525060e083015161012061064b8185018380518252602090810151910152565b610100850151915061016061066c8186018480518252602090810151910152565b9085015191506101a09061068c8583018480518252602090810151910152565b61014086015192506101e06106ad8187018580518252602090810151910152565b90860151805161022087015260209081015161024087015261018087015180516102608801528101516102808701529186015115156102a08601526101c08601516102c086015285015180516102e0860152908101516103008501526040810151610320850152606001516103408401525061020090920151610360909101529056fea264697066735822122057496008162843dcd9c96c45f9b57e70b6a25ba844fb1ca485d95584037df74964736f6c634300080a0033",
    "linkReferences": {},
    "deployedLinkReferences": {}
}