{
    "_format": "hh-sol-artifact-1",
    "contractName": "ERC20Mintable",
    "sourceName": "contracts/test/ERC20Mintable.sol",
    "abi": [
        {
            "inputs": [
                {
                    "internalType": "string",
                    "name": "symbol_",
                    "type": "string"
                }
            ],
            "stateMutability": "nonpayable",
            "type": "constructor"
        },
        {
            "anonymous": false,
            "inputs": [
                {
                    "indexed": true,
                    "internalType": "address",
                    "name": "owner",
                    "type": "address"
                },
                {
                    "indexed": true,
                    "internalType": "address",
                    "name": "spender",
                    "type": "address"
                },
                {
                    "indexed": false,
                    "internalType": "uint256",
                    "name": "value",
                    "type": "uint256"
                }
            ],
            "name": "Approval",
            "type": "event"
        },
        {
            "anonymous": false,
            "inputs": [
                {
                    "indexed": true,
                    "internalType": "address",
                    "name": "from",
                    "type": "address"
                },
                {
                    "indexed": true,
                    "internalType": "address",
                    "name": "to",
                    "type": "address"
                },
                {
                    "indexed": false,
                    "internalType": "uint256",
                    "name": "value",
                    "type": "uint256"
                }
            ],
            "name": "Transfer",
            "type": "event"
        },
        {
            "inputs": [
                {
                    "internalType": "address",
                    "name": "owner",
                    "type": "address"
                },
                {
                    "internalType": "address",
                    "name": "spender",
                    "type": "address"
                }
            ],
            "name": "allowance",
            "outputs": [
                {
                    "internalType": "uint256",
                    "name": "",
                    "type": "uint256"
                }
            ],
            "stateMutability": "view",
            "type": "function"
        },
        {
            "inputs": [
                {
                    "internalType": "address",
                    "name": "spender",
                    "type": "address"
                },
                {
                    "internalType": "uint256",
                    "name": "amount",
                    "type": "uint256"
                }
            ],
            "name": "approve",
            "outputs": [
                {
                    "internalType": "bool",
                    "name": "",
                    "type": "bool"
                }
            ],
            "stateMutability": "nonpayable",
            "type": "function"
        },
        {
            "inputs": [],
            "name": "asset_decimals",
            "outputs": [
                {
                    "internalType": "uint8",
                    "name": "",
                    "type": "uint8"
                }
            ],
            "stateMutability": "view",
            "type": "function"
        },
        {
            "inputs": [
                {
                    "internalType": "address",
                    "name": "account",
                    "type": "address"
                }
            ],
            "name": "balanceOf",
            "outputs": [
                {
                    "internalType": "uint256",
                    "name": "",
                    "type": "uint256"
                }
            ],
            "stateMutability": "view",
            "type": "function"
        },
        {
            "inputs": [],
            "name": "decimals",
            "outputs": [
                {
                    "internalType": "uint8",
                    "name": "",
                    "type": "uint8"
                }
            ],
            "stateMutability": "view",
            "type": "function"
        },
        {
            "inputs": [
                {
                    "internalType": "address",
                    "name": "spender",
                    "type": "address"
                },
                {
                    "internalType": "uint256",
                    "name": "subtractedValue",
                    "type": "uint256"
                }
            ],
            "name": "decreaseAllowance",
            "outputs": [
                {
                    "internalType": "bool",
                    "name": "",
                    "type": "bool"
                }
            ],
            "stateMutability": "nonpayable",
            "type": "function"
        },
        {
            "inputs": [
                {
                    "internalType": "address",
                    "name": "spender",
                    "type": "address"
                },
                {
                    "internalType": "uint256",
                    "name": "addedValue",
                    "type": "uint256"
                }
            ],
            "name": "increaseAllowance",
            "outputs": [
                {
                    "internalType": "bool",
                    "name": "",
                    "type": "bool"
                }
            ],
            "stateMutability": "nonpayable",
            "type": "function"
        },
        {
            "inputs": [
                {
                    "internalType": "address",
                    "name": "_to",
                    "type": "address"
                },
                {
                    "internalType": "uint256",
                    "name": "_value",
                    "type": "uint256"
                }
            ],
            "name": "mint",
            "outputs": [
                {
                    "internalType": "bool",
                    "name": "",
                    "type": "bool"
                }
            ],
            "stateMutability": "nonpayable",
            "type": "function"
        },
        {
            "inputs": [],
            "name": "name",
            "outputs": [
                {
                    "internalType": "string",
                    "name": "",
                    "type": "string"
                }
            ],
            "stateMutability": "view",
            "type": "function"
        },
        {
            "inputs": [
                {
                    "internalType": "uint8",
                    "name": "_decimals",
                    "type": "uint8"
                }
            ],
            "name": "setDecimals",
            "outputs": [],
            "stateMutability": "nonpayable",
            "type": "function"
        },
        {
            "inputs": [],
            "name": "symbol",
            "outputs": [
                {
                    "internalType": "string",
                    "name": "",
                    "type": "string"
                }
            ],
            "stateMutability": "view",
            "type": "function"
        },
        {
            "inputs": [],
            "name": "totalSupply",
            "outputs": [
                {
                    "internalType": "uint256",
                    "name": "",
                    "type": "uint256"
                }
            ],
            "stateMutability": "view",
            "type": "function"
        },
        {
            "inputs": [
                {
                    "internalType": "address",
                    "name": "recipient",
                    "type": "address"
                },
                {
                    "internalType": "uint256",
                    "name": "amount",
                    "type": "uint256"
                }
            ],
            "name": "transfer",
            "outputs": [
                {
                    "internalType": "bool",
                    "name": "",
                    "type": "bool"
                }
            ],
            "stateMutability": "nonpayable",
            "type": "function"
        },
        {
            "inputs": [
                {
                    "internalType": "address",
                    "name": "sender",
                    "type": "address"
                },
                {
                    "internalType": "address",
                    "name": "recipient",
                    "type": "address"
                },
                {
                    "internalType": "uint256",
                    "name": "amount",
                    "type": "uint256"
                }
            ],
            "name": "transferFrom",
            "outputs": [
                {
                    "internalType": "bool",
                    "name": "",
                    "type": "bool"
                }
            ],
            "stateMutability": "nonpayable",
            "type": "function"
        }
    ],
    "bytecode": "0x60806040526005805460ff191660121790553480156200001e57600080fd5b5060405162000cc238038062000cc2833981016040819052620000419162000136565b8051819081906200005a9060039060208401906200007a565b508051620000709060049060208401906200007a565b505050506200024f565b828054620000889062000212565b90600052602060002090601f016020900481019282620000ac5760008555620000f7565b82601f10620000c757805160ff1916838001178555620000f7565b82800160010185558215620000f7579182015b82811115620000f7578251825591602001919060010190620000da565b506200010592915062000109565b5090565b5b808211156200010557600081556001016200010a565b634e487b7160e01b600052604160045260246000fd5b600060208083850312156200014a57600080fd5b82516001600160401b03808211156200016257600080fd5b818501915085601f8301126200017757600080fd5b8151818111156200018c576200018c62000120565b604051601f8201601f19908116603f01168101908382118183101715620001b757620001b762000120565b816040528281528886848701011115620001d057600080fd5b600093505b82841015620001f45784840186015181850187015292850192620001d5565b82841115620002065760008684830101525b98975050505050505050565b600181811c908216806200022757607f821691505b602082108114156200024957634e487b7160e01b600052602260045260246000fd5b50919050565b610a63806200025f6000396000f3fe608060405234801561001057600080fd5b50600436106100ea5760003560e01c806370a082311161008c578063a457c2d711610066578063a457c2d7146101eb578063a9059cbb146101fe578063d6f16b9914610211578063dd62ed3e1461021e57600080fd5b806370a08231146101945780637a1395aa146101bd57806395d89b41146101e357600080fd5b806323b872dd116100c857806323b872dd14610142578063313ce56714610155578063395093511461016e57806340c10f191461018157600080fd5b806306fdde03146100ef578063095ea7b31461010d57806318160ddd14610130575b600080fd5b6100f7610257565b604051610104919061087d565b60405180910390f35b61012061011b3660046108ee565b6102e9565b6040519015158152602001610104565b6002545b604051908152602001610104565b610120610150366004610918565b6102ff565b60055460ff165b60405160ff9091168152602001610104565b61012061017c3660046108ee565b6103ae565b61012061018f3660046108ee565b6103ea565b6101346101a2366004610954565b6001600160a01b031660009081526020819052604090205490565b6101e16101cb366004610976565b6005805460ff191660ff92909216919091179055565b005b6100f76103f6565b6101206101f93660046108ee565b610405565b61012061020c3660046108ee565b61049e565b60055461015c9060ff1681565b61013461022c366004610999565b6001600160a01b03918216600090815260016020908152604080832093909416825291909152205490565b606060038054610266906109cc565b80601f0160208091040260200160405190810160405280929190818152602001828054610292906109cc565b80156102df5780601f106102b4576101008083540402835291602001916102df565b820191906000526020600020905b8154815290600101906020018083116102c257829003601f168201915b5050505050905090565b60006102f63384846104ab565b50600192915050565b600061030c8484846105cf565b6001600160a01b0384166000908152600160209081526040808320338452909152902054828110156103965760405162461bcd60e51b815260206004820152602860248201527f45524332303a207472616e7366657220616d6f756e74206578636565647320616044820152676c6c6f77616e636560c01b60648201526084015b60405180910390fd5b6103a385338584036104ab565b506001949350505050565b3360008181526001602090815260408083206001600160a01b038716845290915281205490916102f69185906103e5908690610a07565b6104ab565b60006102f6838361079e565b606060048054610266906109cc565b3360009081526001602090815260408083206001600160a01b0386168452909152812054828110156104875760405162461bcd60e51b815260206004820152602560248201527f45524332303a2064656372656173656420616c6c6f77616e63652062656c6f77604482015264207a65726f60d81b606482015260840161038d565b61049433858584036104ab565b5060019392505050565b60006102f63384846105cf565b6001600160a01b03831661050d5760405162461bcd60e51b8152602060048201526024808201527f45524332303a20617070726f76652066726f6d20746865207a65726f206164646044820152637265737360e01b606482015260840161038d565b6001600160a01b03821661056e5760405162461bcd60e51b815260206004820152602260248201527f45524332303a20617070726f766520746f20746865207a65726f206164647265604482015261737360f01b606482015260840161038d565b6001600160a01b0383811660008181526001602090815260408083209487168084529482529182902085905590518481527f8c5be1e5ebec7d5bd14f71427d1e84f3dd0314c0f7b2291e5b200ac8c7c3b925910160405180910390a3505050565b6001600160a01b0383166106335760405162461bcd60e51b815260206004820152602560248201527f45524332303a207472616e736665722066726f6d20746865207a65726f206164604482015264647265737360d81b606482015260840161038d565b6001600160a01b0382166106955760405162461bcd60e51b815260206004820152602360248201527f45524332303a207472616e7366657220746f20746865207a65726f206164647260448201526265737360e81b606482015260840161038d565b6001600160a01b0383166000908152602081905260409020548181101561070d5760405162461bcd60e51b815260206004820152602660248201527f45524332303a207472616e7366657220616d6f756e7420657863656564732062604482015265616c616e636560d01b606482015260840161038d565b6001600160a01b03808516600090815260208190526040808220858503905591851681529081208054849290610744908490610a07565b92505081905550826001600160a01b0316846001600160a01b03167fddf252ad1be2c89b69c2b068fc378daa952ba7f163c4a11628f55a4df523b3ef8460405161079091815260200190565b60405180910390a350505050565b6001600160a01b0382166107f45760405162461bcd60e51b815260206004820152601f60248201527f45524332303a206d696e7420746f20746865207a65726f206164647265737300604482015260640161038d565b80600260008282546108069190610a07565b90915550506001600160a01b03821660009081526020819052604081208054839290610833908490610a07565b90915550506040518181526001600160a01b038316906000907fddf252ad1be2c89b69c2b068fc378daa952ba7f163c4a11628f55a4df523b3ef9060200160405180910390a35050565b600060208083528351808285015260005b818110156108aa5785810183015185820160400152820161088e565b818111156108bc576000604083870101525b50601f01601f1916929092016040019392505050565b80356001600160a01b03811681146108e957600080fd5b919050565b6000806040838503121561090157600080fd5b61090a836108d2565b946020939093013593505050565b60008060006060848603121561092d57600080fd5b610936846108d2565b9250610944602085016108d2565b9150604084013590509250925092565b60006020828403121561096657600080fd5b61096f826108d2565b9392505050565b60006020828403121561098857600080fd5b813560ff8116811461096f57600080fd5b600080604083850312156109ac57600080fd5b6109b5836108d2565b91506109c3602084016108d2565b90509250929050565b600181811c908216806109e057607f821691505b60208210811415610a0157634e487b7160e01b600052602260045260246000fd5b50919050565b60008219821115610a2857634e487b7160e01b600052601160045260246000fd5b50019056fea2646970667358221220fff1c3d5f8542bb1ef9c44c5eb7401d9096d34da1fbd07392aab1af65b77a39f64736f6c634300080a0033",
    "linkReferences": {},
    "deployedLinkReferences": {}
}